{
  "_format": "hh-sol-artifact-1",
  "contractName": "AxaFund",
  "sourceName": "contracts/axa-fund/AxaFund.sol",
  "abi": [
    {
      "inputs": [],
      "stateMutability": "nonpayable",
      "type": "constructor"
    },
    {
      "anonymous": false,
      "inputs": [
        {
          "indexed": true,
          "internalType": "address",
          "name": "owner",
          "type": "address"
        },
        {
          "indexed": true,
          "internalType": "address",
          "name": "spender",
          "type": "address"
        },
        {
          "indexed": false,
          "internalType": "uint256",
          "name": "value",
          "type": "uint256"
        }
      ],
      "name": "Approval",
      "type": "event"
    },
    {
      "anonymous": false,
      "inputs": [
        {
          "indexed": false,
          "internalType": "uint256",
          "name": "value",
          "type": "uint256"
        }
      ],
      "name": "NewInvestement",
      "type": "event"
    },
    {
      "anonymous": false,
      "inputs": [
        {
          "indexed": true,
          "internalType": "address",
          "name": "previousOwner",
          "type": "address"
        },
        {
          "indexed": true,
          "internalType": "address",
          "name": "newOwner",
          "type": "address"
        }
      ],
      "name": "OwnershipTransferred",
      "type": "event"
    },
    {
      "anonymous": false,
      "inputs": [
        {
          "indexed": true,
          "internalType": "address",
          "name": "from",
          "type": "address"
        },
        {
          "indexed": true,
          "internalType": "address",
          "name": "to",
          "type": "address"
        },
        {
          "indexed": false,
          "internalType": "uint256",
          "name": "value",
          "type": "uint256"
        }
      ],
      "name": "Transfer",
      "type": "event"
    },
    {
      "inputs": [
        {
          "internalType": "address",
          "name": "owner",
          "type": "address"
        },
        {
          "internalType": "address",
          "name": "spender",
          "type": "address"
        }
      ],
      "name": "allowance",
      "outputs": [
        {
          "internalType": "uint256",
          "name": "",
          "type": "uint256"
        }
      ],
      "stateMutability": "view",
      "type": "function"
    },
    {
      "inputs": [
        {
          "internalType": "address",
          "name": "spender",
          "type": "address"
        },
        {
          "internalType": "uint256",
          "name": "amount",
          "type": "uint256"
        }
      ],
      "name": "approve",
      "outputs": [
        {
          "internalType": "bool",
          "name": "",
          "type": "bool"
        }
      ],
      "stateMutability": "nonpayable",
      "type": "function"
    },
    {
      "inputs": [
        {
          "internalType": "address",
          "name": "account",
          "type": "address"
        }
      ],
      "name": "balanceOf",
      "outputs": [
        {
          "internalType": "uint256",
          "name": "",
          "type": "uint256"
        }
      ],
      "stateMutability": "view",
      "type": "function"
    },
    {
      "inputs": [],
      "name": "decimals",
      "outputs": [
        {
          "internalType": "uint8",
          "name": "",
          "type": "uint8"
        }
      ],
      "stateMutability": "view",
      "type": "function"
    },
    {
      "inputs": [
        {
          "internalType": "address",
          "name": "spender",
          "type": "address"
        },
        {
          "internalType": "uint256",
          "name": "subtractedValue",
          "type": "uint256"
        }
      ],
      "name": "decreaseAllowance",
      "outputs": [
        {
          "internalType": "bool",
          "name": "",
          "type": "bool"
        }
      ],
      "stateMutability": "nonpayable",
      "type": "function"
    },
    {
      "inputs": [],
      "name": "getAaveLendingPool",
      "outputs": [
        {
          "internalType": "address",
          "name": "",
          "type": "address"
        }
      ],
      "stateMutability": "view",
      "type": "function"
    },
    {
      "inputs": [],
      "name": "getAaveToken",
      "outputs": [
        {
          "internalType": "address",
          "name": "",
          "type": "address"
        }
      ],
      "stateMutability": "view",
      "type": "function"
    },
    {
      "inputs": [],
      "name": "getAxaFundShare",
      "outputs": [
        {
          "internalType": "address",
          "name": "",
          "type": "address"
        }
      ],
      "stateMutability": "view",
      "type": "function"
    },
    {
      "inputs": [
        {
          "internalType": "address",
          "name": "spender",
          "type": "address"
        },
        {
          "internalType": "uint256",
          "name": "addedValue",
          "type": "uint256"
        }
      ],
      "name": "increaseAllowance",
      "outputs": [
        {
          "internalType": "bool",
          "name": "",
          "type": "bool"
        }
      ],
      "stateMutability": "nonpayable",
      "type": "function"
    },
    {
      "inputs": [
        {
          "internalType": "address",
          "name": "asset",
          "type": "address"
        },
        {
          "internalType": "uint256",
          "name": "amount",
          "type": "uint256"
        },
        {
          "internalType": "bool",
          "name": "isPull",
          "type": "bool"
        }
      ],
      "name": "invest",
      "outputs": [],
      "stateMutability": "nonpayable",
      "type": "function"
    },
    {
      "inputs": [],
      "name": "name",
      "outputs": [
        {
          "internalType": "string",
          "name": "",
          "type": "string"
        }
      ],
      "stateMutability": "view",
      "type": "function"
    },
    {
      "inputs": [],
      "name": "owner",
      "outputs": [
        {
          "internalType": "address",
          "name": "",
          "type": "address"
        }
      ],
      "stateMutability": "view",
      "type": "function"
    },
    {
      "inputs": [],
      "name": "renounceOwnership",
      "outputs": [],
      "stateMutability": "nonpayable",
      "type": "function"
    },
    {
      "inputs": [
        {
          "internalType": "address payable",
          "name": "aaveLendingPool",
          "type": "address"
        }
      ],
      "name": "replaceAaveLendingPool",
      "outputs": [],
      "stateMutability": "nonpayable",
      "type": "function"
    },
    {
      "inputs": [
        {
          "internalType": "address payable",
          "name": "aaveTokenAddress",
          "type": "address"
        }
      ],
      "name": "replaceAaveToken",
      "outputs": [],
      "stateMutability": "nonpayable",
      "type": "function"
    },
    {
      "inputs": [
        {
          "internalType": "address",
          "name": "axaFundShare",
          "type": "address"
        }
      ],
      "name": "replaceAxaFundShare",
      "outputs": [],
      "stateMutability": "nonpayable",
      "type": "function"
    },
    {
      "inputs": [],
      "name": "symbol",
      "outputs": [
        {
          "internalType": "string",
          "name": "",
          "type": "string"
        }
      ],
      "stateMutability": "view",
      "type": "function"
    },
    {
      "inputs": [],
      "name": "totalSupply",
      "outputs": [
        {
          "internalType": "uint256",
          "name": "",
          "type": "uint256"
        }
      ],
      "stateMutability": "view",
      "type": "function"
    },
    {
      "inputs": [
        {
          "internalType": "address",
          "name": "recipient",
          "type": "address"
        },
        {
          "internalType": "uint256",
          "name": "amount",
          "type": "uint256"
        }
      ],
      "name": "transfer",
      "outputs": [
        {
          "internalType": "bool",
          "name": "",
          "type": "bool"
        }
      ],
      "stateMutability": "nonpayable",
      "type": "function"
    },
    {
      "inputs": [
        {
          "internalType": "address",
          "name": "sender",
          "type": "address"
        },
        {
          "internalType": "address",
          "name": "recipient",
          "type": "address"
        },
        {
          "internalType": "uint256",
          "name": "amount",
          "type": "uint256"
        }
      ],
      "name": "transferFrom",
      "outputs": [
        {
          "internalType": "bool",
          "name": "",
          "type": "bool"
        }
      ],
      "stateMutability": "nonpayable",
      "type": "function"
    },
    {
      "inputs": [
        {
          "internalType": "address",
          "name": "newOwner",
          "type": "address"
        }
      ],
      "name": "transferOwnership",
      "outputs": [],
      "stateMutability": "nonpayable",
      "type": "function"
    }
  ],
  "bytecode": "0x608060405273e0fba4fc209b4948668006b2be61711b7f465bae600660006101000a81548173ffffffffffffffffffffffffffffffffffffffff021916908373ffffffffffffffffffffffffffffffffffffffff16021790555073b597cd8d3217ea6477232f9217fa70837ff667af600760006101000a81548173ffffffffffffffffffffffffffffffffffffffff021916908373ffffffffffffffffffffffffffffffffffffffff160217905550348015620000bb57600080fd5b506040518060400160405280600781526020017f41786146756e64000000000000000000000000000000000000000000000000008152506040518060400160405280600281526020017f414600000000000000000000000000000000000000000000000000000000000081525081600390805190602001906200014092919062000250565b5080600490805190602001906200015992919062000250565b5050506200017c620001706200018260201b60201c565b6200018a60201b60201c565b62000365565b600033905090565b6000600560009054906101000a900473ffffffffffffffffffffffffffffffffffffffff16905081600560006101000a81548173ffffffffffffffffffffffffffffffffffffffff021916908373ffffffffffffffffffffffffffffffffffffffff1602179055508173ffffffffffffffffffffffffffffffffffffffff168173ffffffffffffffffffffffffffffffffffffffff167f8be0079c531659141344cd1fd0a4f28419497f9722a3daafe3b4186f6b6457e060405160405180910390a35050565b8280546200025e906200032f565b90600052602060002090601f016020900481019282620002825760008555620002ce565b82601f106200029d57805160ff1916838001178555620002ce565b82800160010185558215620002ce579182015b82811115620002cd578251825591602001919060010190620002b0565b5b509050620002dd9190620002e1565b5090565b5b80821115620002fc576000816000905550600101620002e2565b5090565b7f4e487b7100000000000000000000000000000000000000000000000000000000600052602260045260246000fd5b600060028204905060018216806200034857607f821691505b602082108114156200035f576200035e62000300565b5b50919050565b6126c380620003756000396000f3fe608060405234801561001057600080fd5b50600436106101375760003560e01c8063715018a6116100b8578063a457c2d71161007c578063a457c2d71461032c578063a9059cbb1461035c578063c3abee701461038c578063c41e83a4146103aa578063dd62ed3e146103c6578063f2fde38b146103f657610137565b8063715018a6146102ae57806377fe4e2e146102b85780637e4d490f146102d45780638da5cb5b146102f057806395d89b411461030e57610137565b8063313ce567116100ff578063313ce567146101f457806339509351146102125780633fc54564146102425780634dd366bc1461026057806370a082311461027e57610137565b806306fdde031461013c578063095ea7b31461015a57806318160ddd1461018a578063190d6493146101a857806323b872dd146101c4575b600080fd5b610144610412565b6040516101519190611920565b60405180910390f35b610174600480360381019061016f91906119db565b6104a4565b6040516101819190611a36565b60405180910390f35b6101926104c2565b60405161019f9190611a60565b60405180910390f35b6101c260048036038101906101bd9190611ab9565b6104cc565b005b6101de60048036038101906101d99190611ae6565b61058c565b6040516101eb9190611a36565b60405180910390f35b6101fc610684565b6040516102099190611b55565b60405180910390f35b61022c600480360381019061022791906119db565b61068d565b6040516102399190611a36565b60405180910390f35b61024a610739565b6040516102579190611b7f565b60405180910390f35b610268610763565b6040516102759190611b7f565b60405180910390f35b61029860048036038101906102939190611b9a565b61078d565b6040516102a59190611a60565b60405180910390f35b6102b66107d5565b005b6102d260048036038101906102cd9190611ab9565b61085d565b005b6102ee60048036038101906102e99190611bf3565b61091d565b005b6102f8610ae1565b6040516103059190611b7f565b60405180910390f35b610316610b0b565b6040516103239190611920565b60405180910390f35b610346600480360381019061034191906119db565b610b9d565b6040516103539190611a36565b60405180910390f35b610376600480360381019061037191906119db565b610c88565b6040516103839190611a36565b60405180910390f35b610394610ca6565b6040516103a19190611b7f565b60405180910390f35b6103c460048036038101906103bf9190611b9a565b610cd0565b005b6103e060048036038101906103db9190611c46565b610d90565b6040516103ed9190611a60565b60405180910390f35b610410600480360381019061040b9190611b9a565b610e17565b005b60606003805461042190611cb5565b80601f016020809104026020016040519081016040528092919081815260200182805461044d90611cb5565b801561049a5780601f1061046f5761010080835404028352916020019161049a565b820191906000526020600020905b81548152906001019060200180831161047d57829003601f168201915b5050505050905090565b60006104b86104b1610f0f565b8484610f17565b6001905092915050565b6000600254905090565b6104d4610f0f565b73ffffffffffffffffffffffffffffffffffffffff166104f2610ae1565b73ffffffffffffffffffffffffffffffffffffffff1614610548576040517f08c379a000000000000000000000000000000000000000000000000000000000815260040161053f90611d33565b60405180910390fd5b80600660006101000a81548173ffffffffffffffffffffffffffffffffffffffff021916908373ffffffffffffffffffffffffffffffffffffffff16021790555050565b60006105998484846110e2565b6000600160008673ffffffffffffffffffffffffffffffffffffffff1673ffffffffffffffffffffffffffffffffffffffff16815260200190815260200160002060006105e4610f0f565b73ffffffffffffffffffffffffffffffffffffffff1673ffffffffffffffffffffffffffffffffffffffff16815260200190815260200160002054905082811015610664576040517f08c379a000000000000000000000000000000000000000000000000000000000815260040161065b90611dc5565b60405180910390fd5b61067885610670610f0f565b858403610f17565b60019150509392505050565b60006012905090565b600061072f61069a610f0f565b8484600160006106a8610f0f565b73ffffffffffffffffffffffffffffffffffffffff1673ffffffffffffffffffffffffffffffffffffffff16815260200190815260200160002060008873ffffffffffffffffffffffffffffffffffffffff1673ffffffffffffffffffffffffffffffffffffffff1681526020019081526020016000205461072a9190611e14565b610f17565b6001905092915050565b6000600760009054906101000a900473ffffffffffffffffffffffffffffffffffffffff16905090565b6000600660009054906101000a900473ffffffffffffffffffffffffffffffffffffffff16905090565b60008060008373ffffffffffffffffffffffffffffffffffffffff1673ffffffffffffffffffffffffffffffffffffffff168152602001908152602001600020549050919050565b6107dd610f0f565b73ffffffffffffffffffffffffffffffffffffffff166107fb610ae1565b73ffffffffffffffffffffffffffffffffffffffff1614610851576040517f08c379a000000000000000000000000000000000000000000000000000000000815260040161084890611d33565b60405180910390fd5b61085b6000611363565b565b610865610f0f565b73ffffffffffffffffffffffffffffffffffffffff16610883610ae1565b73ffffffffffffffffffffffffffffffffffffffff16146108d9576040517f08c379a00000000000000000000000000000000000000000000000000000000081526004016108d090611d33565b60405180910390fd5b80600760006101000a81548173ffffffffffffffffffffffffffffffffffffffff021916908373ffffffffffffffffffffffffffffffffffffffff16021790555050565b8015610951576109503330848673ffffffffffffffffffffffffffffffffffffffff16611429909392919063ffffffff16565b5b6000600660009054906101000a900473ffffffffffffffffffffffffffffffffffffffff1690506109a381848673ffffffffffffffffffffffffffffffffffffffff166114b29092919063ffffffff16565b8073ffffffffffffffffffffffffffffffffffffffff1663e8eda9df85853060006040518563ffffffff1660e01b81526004016109e39493929190611ebd565b600060405180830381600087803b1580156109fd57600080fd5b505af1158015610a11573d6000803e3d6000fd5b50505050600860009054906101000a900473ffffffffffffffffffffffffffffffffffffffff1673ffffffffffffffffffffffffffffffffffffffff1663b9b8c24633856040518363ffffffff1660e01b8152600401610a72929190611f02565b600060405180830381600087803b158015610a8c57600080fd5b505af1158015610aa0573d6000803e3d6000fd5b505050507fa9ba232351b96d14e1641d1371e144f9474b3a121b02e28b1dde04214eac090483604051610ad39190611a60565b60405180910390a150505050565b6000600560009054906101000a900473ffffffffffffffffffffffffffffffffffffffff16905090565b606060048054610b1a90611cb5565b80601f0160208091040260200160405190810160405280929190818152602001828054610b4690611cb5565b8015610b935780601f10610b6857610100808354040283529160200191610b93565b820191906000526020600020905b815481529060010190602001808311610b7657829003601f168201915b5050505050905090565b60008060016000610bac610f0f565b73ffffffffffffffffffffffffffffffffffffffff1673ffffffffffffffffffffffffffffffffffffffff16815260200190815260200160002060008573ffffffffffffffffffffffffffffffffffffffff1673ffffffffffffffffffffffffffffffffffffffff16815260200190815260200160002054905082811015610c69576040517f08c379a0000000000000000000000000000000000000000000000000000000008152600401610c6090611f9d565b60405180910390fd5b610c7d610c74610f0f565b85858403610f17565b600191505092915050565b6000610c9c610c95610f0f565b84846110e2565b6001905092915050565b6000600860009054906101000a900473ffffffffffffffffffffffffffffffffffffffff16905090565b610cd8610f0f565b73ffffffffffffffffffffffffffffffffffffffff16610cf6610ae1565b73ffffffffffffffffffffffffffffffffffffffff1614610d4c576040517f08c379a0000000000000000000000000000000000000000000000000000000008152600401610d4390611d33565b60405180910390fd5b80600860006101000a81548173ffffffffffffffffffffffffffffffffffffffff021916908373ffffffffffffffffffffffffffffffffffffffff16021790555050565b6000600160008473ffffffffffffffffffffffffffffffffffffffff1673ffffffffffffffffffffffffffffffffffffffff16815260200190815260200160002060008373ffffffffffffffffffffffffffffffffffffffff1673ffffffffffffffffffffffffffffffffffffffff16815260200190815260200160002054905092915050565b610e1f610f0f565b73ffffffffffffffffffffffffffffffffffffffff16610e3d610ae1565b73ffffffffffffffffffffffffffffffffffffffff1614610e93576040517f08c379a0000000000000000000000000000000000000000000000000000000008152600401610e8a90611d33565b60405180910390fd5b600073ffffffffffffffffffffffffffffffffffffffff168173ffffffffffffffffffffffffffffffffffffffff161415610f03576040517f08c379a0000000000000000000000000000000000000000000000000000000008152600401610efa9061202f565b60405180910390fd5b610f0c81611363565b50565b600033905090565b600073ffffffffffffffffffffffffffffffffffffffff168373ffffffffffffffffffffffffffffffffffffffff161415610f87576040517f08c379a0000000000000000000000000000000000000000000000000000000008152600401610f7e906120c1565b60405180910390fd5b600073ffffffffffffffffffffffffffffffffffffffff168273ffffffffffffffffffffffffffffffffffffffff161415610ff7576040517f08c379a0000000000000000000000000000000000000000000000000000000008152600401610fee90612153565b60405180910390fd5b80600160008573ffffffffffffffffffffffffffffffffffffffff1673ffffffffffffffffffffffffffffffffffffffff16815260200190815260200160002060008473ffffffffffffffffffffffffffffffffffffffff1673ffffffffffffffffffffffffffffffffffffffff168152602001908152602001600020819055508173ffffffffffffffffffffffffffffffffffffffff168373ffffffffffffffffffffffffffffffffffffffff167f8c5be1e5ebec7d5bd14f71427d1e84f3dd0314c0f7b2291e5b200ac8c7c3b925836040516110d59190611a60565b60405180910390a3505050565b600073ffffffffffffffffffffffffffffffffffffffff168373ffffffffffffffffffffffffffffffffffffffff161415611152576040517f08c379a0000000000000000000000000000000000000000000000000000000008152600401611149906121e5565b60405180910390fd5b600073ffffffffffffffffffffffffffffffffffffffff168273ffffffffffffffffffffffffffffffffffffffff1614156111c2576040517f08c379a00000000000000000000000000000000000000000000000000000000081526004016111b990612277565b60405180910390fd5b6111cd838383611610565b60008060008573ffffffffffffffffffffffffffffffffffffffff1673ffffffffffffffffffffffffffffffffffffffff16815260200190815260200160002054905081811015611253576040517f08c379a000000000000000000000000000000000000000000000000000000000815260040161124a90612309565b60405180910390fd5b8181036000808673ffffffffffffffffffffffffffffffffffffffff1673ffffffffffffffffffffffffffffffffffffffff16815260200190815260200160002081905550816000808573ffffffffffffffffffffffffffffffffffffffff1673ffffffffffffffffffffffffffffffffffffffff16815260200190815260200160002060008282546112e69190611e14565b925050819055508273ffffffffffffffffffffffffffffffffffffffff168473ffffffffffffffffffffffffffffffffffffffff167fddf252ad1be2c89b69c2b068fc378daa952ba7f163c4a11628f55a4df523b3ef8460405161134a9190611a60565b60405180910390a361135d848484611615565b50505050565b6000600560009054906101000a900473ffffffffffffffffffffffffffffffffffffffff16905081600560006101000a81548173ffffffffffffffffffffffffffffffffffffffff021916908373ffffffffffffffffffffffffffffffffffffffff1602179055508173ffffffffffffffffffffffffffffffffffffffff168173ffffffffffffffffffffffffffffffffffffffff167f8be0079c531659141344cd1fd0a4f28419497f9722a3daafe3b4186f6b6457e060405160405180910390a35050565b6114ac846323b872dd60e01b85858560405160240161144a93929190612329565b604051602081830303815290604052907bffffffffffffffffffffffffffffffffffffffffffffffffffffffff19166020820180517bffffffffffffffffffffffffffffffffffffffffffffffffffffffff838183161783525050505061161a565b50505050565b600081148061154b575060008373ffffffffffffffffffffffffffffffffffffffff1663dd62ed3e30856040518363ffffffff1660e01b81526004016114f9929190612360565b60206040518083038186803b15801561151157600080fd5b505afa158015611525573d6000803e3d6000fd5b505050506040513d601f19601f82011682018060405250810190611549919061239e565b145b61158a576040517f08c379a00000000000000000000000000000000000000000000000000000000081526004016115819061243d565b60405180910390fd5b61160b8363095ea7b360e01b84846040516024016115a9929190611f02565b604051602081830303815290604052907bffffffffffffffffffffffffffffffffffffffffffffffffffffffff19166020820180517bffffffffffffffffffffffffffffffffffffffffffffffffffffffff838183161783525050505061161a565b505050565b505050565b505050565b600061167c826040518060400160405280602081526020017f5361666545524332303a206c6f772d6c6576656c2063616c6c206661696c65648152508573ffffffffffffffffffffffffffffffffffffffff166116e19092919063ffffffff16565b90506000815111156116dc578080602001905181019061169c9190612472565b6116db576040517f08c379a00000000000000000000000000000000000000000000000000000000081526004016116d290612511565b60405180910390fd5b5b505050565b60606116f084846000856116f9565b90509392505050565b60608247101561173e576040517f08c379a0000000000000000000000000000000000000000000000000000000008152600401611735906125a3565b60405180910390fd5b6117478561180d565b611786576040517f08c379a000000000000000000000000000000000000000000000000000000000815260040161177d9061260f565b60405180910390fd5b6000808673ffffffffffffffffffffffffffffffffffffffff1685876040516117af9190612676565b60006040518083038185875af1925050503d80600081146117ec576040519150601f19603f3d011682016040523d82523d6000602084013e6117f1565b606091505b5091509150611801828286611820565b92505050949350505050565b600080823b905060008111915050919050565b6060831561183057829050611880565b6000835111156118435782518084602001fd5b816040517f08c379a00000000000000000000000000000000000000000000000000000000081526004016118779190611920565b60405180910390fd5b9392505050565b600081519050919050565b600082825260208201905092915050565b60005b838110156118c15780820151818401526020810190506118a6565b838111156118d0576000848401525b50505050565b6000601f19601f8301169050919050565b60006118f282611887565b6118fc8185611892565b935061190c8185602086016118a3565b611915816118d6565b840191505092915050565b6000602082019050818103600083015261193a81846118e7565b905092915050565b600080fd5b600073ffffffffffffffffffffffffffffffffffffffff82169050919050565b600061197282611947565b9050919050565b61198281611967565b811461198d57600080fd5b50565b60008135905061199f81611979565b92915050565b6000819050919050565b6119b8816119a5565b81146119c357600080fd5b50565b6000813590506119d5816119af565b92915050565b600080604083850312156119f2576119f1611942565b5b6000611a0085828601611990565b9250506020611a11858286016119c6565b9150509250929050565b60008115159050919050565b611a3081611a1b565b82525050565b6000602082019050611a4b6000830184611a27565b92915050565b611a5a816119a5565b82525050565b6000602082019050611a756000830184611a51565b92915050565b6000611a8682611947565b9050919050565b611a9681611a7b565b8114611aa157600080fd5b50565b600081359050611ab381611a8d565b92915050565b600060208284031215611acf57611ace611942565b5b6000611add84828501611aa4565b91505092915050565b600080600060608486031215611aff57611afe611942565b5b6000611b0d86828701611990565b9350506020611b1e86828701611990565b9250506040611b2f868287016119c6565b9150509250925092565b600060ff82169050919050565b611b4f81611b39565b82525050565b6000602082019050611b6a6000830184611b46565b92915050565b611b7981611967565b82525050565b6000602082019050611b946000830184611b70565b92915050565b600060208284031215611bb057611baf611942565b5b6000611bbe84828501611990565b91505092915050565b611bd081611a1b565b8114611bdb57600080fd5b50565b600081359050611bed81611bc7565b92915050565b600080600060608486031215611c0c57611c0b611942565b5b6000611c1a86828701611990565b9350506020611c2b868287016119c6565b9250506040611c3c86828701611bde565b9150509250925092565b60008060408385031215611c5d57611c5c611942565b5b6000611c6b85828601611990565b9250506020611c7c85828601611990565b9150509250929050565b7f4e487b7100000000000000000000000000000000000000000000000000000000600052602260045260246000fd5b60006002820490506001821680611ccd57607f821691505b60208210811415611ce157611ce0611c86565b5b50919050565b7f4f776e61626c653a2063616c6c6572206973206e6f7420746865206f776e6572600082015250565b6000611d1d602083611892565b9150611d2882611ce7565b602082019050919050565b60006020820190508181036000830152611d4c81611d10565b9050919050565b7f45524332303a207472616e7366657220616d6f756e742065786365656473206160008201527f6c6c6f77616e6365000000000000000000000000000000000000000000000000602082015250565b6000611daf602883611892565b9150611dba82611d53565b604082019050919050565b60006020820190508181036000830152611dde81611da2565b9050919050565b7f4e487b7100000000000000000000000000000000000000000000000000000000600052601160045260246000fd5b6000611e1f826119a5565b9150611e2a836119a5565b9250827fffffffffffffffffffffffffffffffffffffffffffffffffffffffffffffffff03821115611e5f57611e5e611de5565b5b828201905092915050565b6000819050919050565b600061ffff82169050919050565b6000819050919050565b6000611ea7611ea2611e9d84611e6a565b611e82565b611e74565b9050919050565b611eb781611e8c565b82525050565b6000608082019050611ed26000830187611b70565b611edf6020830186611a51565b611eec6040830185611b70565b611ef96060830184611eae565b95945050505050565b6000604082019050611f176000830185611b70565b611f246020830184611a51565b9392505050565b7f45524332303a2064656372656173656420616c6c6f77616e63652062656c6f7760008201527f207a65726f000000000000000000000000000000000000000000000000000000602082015250565b6000611f87602583611892565b9150611f9282611f2b565b604082019050919050565b60006020820190508181036000830152611fb681611f7a565b9050919050565b7f4f776e61626c653a206e6577206f776e657220697320746865207a65726f206160008201527f6464726573730000000000000000000000000000000000000000000000000000602082015250565b6000612019602683611892565b915061202482611fbd565b604082019050919050565b600060208201905081810360008301526120488161200c565b9050919050565b7f45524332303a20617070726f76652066726f6d20746865207a65726f2061646460008201527f7265737300000000000000000000000000000000000000000000000000000000602082015250565b60006120ab602483611892565b91506120b68261204f565b604082019050919050565b600060208201905081810360008301526120da8161209e565b9050919050565b7f45524332303a20617070726f766520746f20746865207a65726f20616464726560008201527f7373000000000000000000000000000000000000000000000000000000000000602082015250565b600061213d602283611892565b9150612148826120e1565b604082019050919050565b6000602082019050818103600083015261216c81612130565b9050919050565b7f45524332303a207472616e736665722066726f6d20746865207a65726f20616460008201527f6472657373000000000000000000000000000000000000000000000000000000602082015250565b60006121cf602583611892565b91506121da82612173565b604082019050919050565b600060208201905081810360008301526121fe816121c2565b9050919050565b7f45524332303a207472616e7366657220746f20746865207a65726f206164647260008201527f6573730000000000000000000000000000000000000000000000000000000000602082015250565b6000612261602383611892565b915061226c82612205565b604082019050919050565b6000602082019050818103600083015261229081612254565b9050919050565b7f45524332303a207472616e7366657220616d6f756e742065786365656473206260008201527f616c616e63650000000000000000000000000000000000000000000000000000602082015250565b60006122f3602683611892565b91506122fe82612297565b604082019050919050565b60006020820190508181036000830152612322816122e6565b9050919050565b600060608201905061233e6000830186611b70565b61234b6020830185611b70565b6123586040830184611a51565b949350505050565b60006040820190506123756000830185611b70565b6123826020830184611b70565b9392505050565b600081519050612398816119af565b92915050565b6000602082840312156123b4576123b3611942565b5b60006123c284828501612389565b91505092915050565b7f5361666545524332303a20617070726f76652066726f6d206e6f6e2d7a65726f60008201527f20746f206e6f6e2d7a65726f20616c6c6f77616e636500000000000000000000602082015250565b6000612427603683611892565b9150612432826123cb565b604082019050919050565b600060208201905081810360008301526124568161241a565b9050919050565b60008151905061246c81611bc7565b92915050565b60006020828403121561248857612487611942565b5b60006124968482850161245d565b91505092915050565b7f5361666545524332303a204552433230206f7065726174696f6e20646964206e60008201527f6f74207375636365656400000000000000000000000000000000000000000000602082015250565b60006124fb602a83611892565b91506125068261249f565b604082019050919050565b6000602082019050818103600083015261252a816124ee565b9050919050565b7f416464726573733a20696e73756666696369656e742062616c616e636520666f60008201527f722063616c6c0000000000000000000000000000000000000000000000000000602082015250565b600061258d602683611892565b915061259882612531565b604082019050919050565b600060208201905081810360008301526125bc81612580565b9050919050565b7f416464726573733a2063616c6c20746f206e6f6e2d636f6e7472616374000000600082015250565b60006125f9601d83611892565b9150612604826125c3565b602082019050919050565b60006020820190508181036000830152612628816125ec565b9050919050565b600081519050919050565b600081905092915050565b60006126508261262f565b61265a818561263a565b935061266a8185602086016118a3565b80840191505092915050565b60006126828284612645565b91508190509291505056fea26469706673582212203abbff89fe269b1a8bbecf19b4b136e5290bcfa347adca15b6e58bcfd78d777964736f6c63430008090033",
  "linkReferences": {},
  "deployedLinkReferences": {}
}