{
  "_format": "hh-sol-artifact-1",
  "contractName": "AaveDefiAdapter",
  "sourceName": "contracts/defi-adapter/AaveDefiAdapter.sol",
  "abi": [
    {
      "anonymous": false,
      "inputs": [
        {
          "indexed": false,
          "internalType": "uint256",
          "name": "value",
          "type": "uint256"
        }
      ],
      "name": "NewDeposit",
      "type": "event"
    },
    {
      "inputs": [],
      "name": "aToken",
      "outputs": [
        {
          "internalType": "contract IERC20",
          "name": "",
          "type": "address"
        }
      ],
      "stateMutability": "view",
      "type": "function"
    },
    {
      "inputs": [],
      "name": "deposit",
      "outputs": [],
      "stateMutability": "payable",
      "type": "function"
    },
    {
      "inputs": [
        {
          "internalType": "uint256",
          "name": "amount",
          "type": "uint256"
        }
      ],
      "name": "withdraw",
      "outputs": [],
      "stateMutability": "nonpayable",
      "type": "function"
    }
  ],
  "bytecode": "0x608060405273a61ca04df33b72b235a8a28cfb535bb7a5271b706000806101000a81548173ffffffffffffffffffffffffffffffffffffffff021916908373ffffffffffffffffffffffffffffffffffffffff16021790555073a61ca04df33b72b235a8a28cfb535bb7a5271b70600160006101000a81548173ffffffffffffffffffffffffffffffffffffffff021916908373ffffffffffffffffffffffffffffffffffffffff16021790555073e0fba4fc209b4948668006b2be61711b7f465bae600260006101000a81548173ffffffffffffffffffffffffffffffffffffffff021916908373ffffffffffffffffffffffffffffffffffffffff1602179055507387b1f4cf9bd63f7bbd3ee1ad04e8f52540349347600360006101000a81548173ffffffffffffffffffffffffffffffffffffffff021916908373ffffffffffffffffffffffffffffffffffffffff1602179055507387b1f4cf9bd63f7bbd3ee1ad04e8f52540349347600460006101000a81548173ffffffffffffffffffffffffffffffffffffffff021916908373ffffffffffffffffffffffffffffffffffffffff1602179055503480156101b857600080fd5b50610658806101c86000396000f3fe6080604052600436106100345760003560e01c80632e1a7d4d14610039578063a0c1f15e14610062578063d0e30db01461008d575b600080fd5b34801561004557600080fd5b50610060600480360381019061005b91906103aa565b610097565b005b34801561006e57600080fd5b5061007761025d565b6040516100849190610456565b60405180910390f35b610095610283565b005b600460009054906101000a900473ffffffffffffffffffffffffffffffffffffffff1673ffffffffffffffffffffffffffffffffffffffff1663095ea7b3600160009054906101000a900473ffffffffffffffffffffffffffffffffffffffff167fffffffffffffffffffffffffffffffffffffffffffffffffffffffffffffffff6040518363ffffffff1660e01b81526004016101369291906104a1565b602060405180830381600087803b15801561015057600080fd5b505af1158015610164573d6000803e3d6000fd5b505050506040513d601f19601f820116820180604052508101906101889190610502565b5060008054906101000a900473ffffffffffffffffffffffffffffffffffffffff1673ffffffffffffffffffffffffffffffffffffffff166380500d20600260009054906101000a900473ffffffffffffffffffffffffffffffffffffffff167fffffffffffffffffffffffffffffffffffffffffffffffffffffffffffffffff306040518463ffffffff1660e01b815260040161022893929190610550565b600060405180830381600087803b15801561024257600080fd5b505af1158015610256573d6000803e3d6000fd5b5050505050565b600460009054906101000a900473ffffffffffffffffffffffffffffffffffffffff1681565b60008054906101000a900473ffffffffffffffffffffffffffffffffffffffff1673ffffffffffffffffffffffffffffffffffffffff1663474cf53d47600260009054906101000a900473ffffffffffffffffffffffffffffffffffffffff163060006040518563ffffffff1660e01b8152600401610304939291906105d0565b6000604051808303818588803b15801561031d57600080fd5b505af1158015610331573d6000803e3d6000fd5b50505050507f7c69b5d18d98a59db7941c2e87bd7a8990ed215dc2369de15b97919a22f5c741346040516103659190610607565b60405180910390a1565b600080fd5b6000819050919050565b61038781610374565b811461039257600080fd5b50565b6000813590506103a48161037e565b92915050565b6000602082840312156103c0576103bf61036f565b5b60006103ce84828501610395565b91505092915050565b600073ffffffffffffffffffffffffffffffffffffffff82169050919050565b6000819050919050565b600061041c610417610412846103d7565b6103f7565b6103d7565b9050919050565b600061042e82610401565b9050919050565b600061044082610423565b9050919050565b61045081610435565b82525050565b600060208201905061046b6000830184610447565b92915050565b600061047c826103d7565b9050919050565b61048c81610471565b82525050565b61049b81610374565b82525050565b60006040820190506104b66000830185610483565b6104c36020830184610492565b9392505050565b60008115159050919050565b6104df816104ca565b81146104ea57600080fd5b50565b6000815190506104fc816104d6565b92915050565b6000602082840312156105185761051761036f565b5b6000610526848285016104ed565b91505092915050565b600061053a82610423565b9050919050565b61054a8161052f565b82525050565b60006060820190506105656000830186610483565b6105726020830185610492565b61057f6040830184610541565b949350505050565b6000819050919050565b600061ffff82169050919050565b60006105ba6105b56105b084610587565b6103f7565b610591565b9050919050565b6105ca8161059f565b82525050565b60006060820190506105e56000830186610483565b6105f26020830185610483565b6105ff60408301846105c1565b949350505050565b600060208201905061061c6000830184610492565b9291505056fea264697066735822122079323be09e3de56e75773e89d668e42356fa0cbf1fb01d0f56f940691153580b64736f6c63430008090033",
  "linkReferences": {},
  "deployedLinkReferences": {}
}