{
  "_format": "hh-sol-artifact-1",
  "contractName": "AaveDefiAdapter",
  "sourceName": "contracts/defi-adapter/AaveDefiAdapter.sol",
  "abi": [
    {
      "anonymous": false,
      "inputs": [
        {
          "indexed": false,
          "internalType": "uint256",
          "name": "value",
          "type": "uint256"
        }
      ],
      "name": "NewDeposit",
      "type": "event"
    },
    {
      "inputs": [],
      "name": "deposit",
      "outputs": [],
      "stateMutability": "payable",
      "type": "function"
    },
    {
      "inputs": [],
      "name": "getBalance",
      "outputs": [
        {
          "internalType": "uint256",
          "name": "balance",
          "type": "uint256"
        }
      ],
      "stateMutability": "view",
      "type": "function"
    },
    {
      "inputs": [],
      "name": "withdraw",
      "outputs": [],
      "stateMutability": "nonpayable",
      "type": "function"
    }
  ],
  "bytecode": "0x608060405273e0fba4fc209b4948668006b2be61711b7f465bae6000806101000a81548173ffffffffffffffffffffffffffffffffffffffff021916908373ffffffffffffffffffffffffffffffffffffffff16021790555073b597cd8d3217ea6477232f9217fa70837ff667af600160006101000a81548173ffffffffffffffffffffffffffffffffffffffff021916908373ffffffffffffffffffffffffffffffffffffffff1602179055503480156100b957600080fd5b506104f1806100c96000396000f3fe6080604052600436106100345760003560e01c806312065fe0146100395780633ccfd60b14610064578063d0e30db01461007b575b600080fd5b34801561004557600080fd5b5061004e610085565b60405161005b9190610334565b60405180910390f35b34801561007057600080fd5b5061007961008a565b005b61008361008c565b005b600090565b565b61009534610259565b7f7c69b5d18d98a59db7941c2e87bd7a8990ed215dc2369de15b97919a22f5c741346040516100c49190610334565b60405180910390a160008060009054906101000a900473ffffffffffffffffffffffffffffffffffffffff169050600160009054906101000a900473ffffffffffffffffffffffffffffffffffffffff1673ffffffffffffffffffffffffffffffffffffffff1663095ea7b360008054906101000a900473ffffffffffffffffffffffffffffffffffffffff16346040518363ffffffff1660e01b815260040161016f929190610390565b602060405180830381600087803b15801561018957600080fd5b505af115801561019d573d6000803e3d6000fd5b505050506040513d601f19601f820116820180604052508101906101c191906103f6565b508073ffffffffffffffffffffffffffffffffffffffff1663e8eda9df600160009054906101000a900473ffffffffffffffffffffffffffffffffffffffff16343360006040518563ffffffff1660e01b81526004016102249493929190610476565b600060405180830381600087803b15801561023e57600080fd5b505af1158015610252573d6000803e3d6000fd5b5050505050565b6102ef8160405160240161026d9190610334565b6040516020818303038152906040527ff5b1bba9000000000000000000000000000000000000000000000000000000007bffffffffffffffffffffffffffffffffffffffffffffffffffffffff19166020820180517bffffffffffffffffffffffffffffffffffffffffffffffffffffffff83818316178352505050506102f2565b50565b60008151905060006a636f6e736f6c652e6c6f679050602083016000808483855afa5050505050565b6000819050919050565b61032e8161031b565b82525050565b60006020820190506103496000830184610325565b92915050565b600073ffffffffffffffffffffffffffffffffffffffff82169050919050565b600061037a8261034f565b9050919050565b61038a8161036f565b82525050565b60006040820190506103a56000830185610381565b6103b26020830184610325565b9392505050565b600080fd5b60008115159050919050565b6103d3816103be565b81146103de57600080fd5b50565b6000815190506103f0816103ca565b92915050565b60006020828403121561040c5761040b6103b9565b5b600061041a848285016103e1565b91505092915050565b6000819050919050565b600061ffff82169050919050565b6000819050919050565b600061046061045b61045684610423565b61043b565b61042d565b9050919050565b61047081610445565b82525050565b600060808201905061048b6000830187610381565b6104986020830186610325565b6104a56040830185610381565b6104b26060830184610467565b9594505050505056fea264697066735822122020b2c6bfde7d7f455d764de5cdee52b9d30f2984dbdd6f09dddc09be67c4028c64736f6c63430008090033",
  "linkReferences": {},
  "deployedLinkReferences": {}
}