{
  "_format": "hh-sol-artifact-1",
  "contractName": "HelloWorld",
  "sourceName": "contracts/HelloWorld.sol",
  "abi": [
    {
      "inputs": [],
      "stateMutability": "nonpayable",
      "type": "constructor"
    },
    {
      "inputs": [],
      "name": "getMessage",
      "outputs": [
        {
          "internalType": "string",
          "name": "",
          "type": "string"
        }
      ],
      "stateMutability": "view",
      "type": "function"
    },
    {
      "inputs": [],
      "name": "owner",
      "outputs": [
        {
          "internalType": "address",
          "name": "",
          "type": "address"
        }
      ],
      "stateMutability": "view",
      "type": "function"
    },
    {
      "inputs": [
        {
          "internalType": "string",
          "name": "_value",
          "type": "string"
        }
      ],
      "name": "setMessage",
      "outputs": [],
      "stateMutability": "nonpayable",
      "type": "function"
    }
  ],
  "bytecode": "0x60806040526040518060400160405280600b81526020017f48656c6c6f20576f726c640000000000000000000000000000000000000000008152506001908051906020019061004f9291906100a2565b5034801561005c57600080fd5b50336000806101000a81548173ffffffffffffffffffffffffffffffffffffffff021916908373ffffffffffffffffffffffffffffffffffffffff1602179055506101a6565b8280546100ae90610174565b90600052602060002090601f0160209004810192826100d05760008555610117565b82601f106100e957805160ff1916838001178555610117565b82800160010185558215610117579182015b828111156101165782518255916020019190600101906100fb565b5b5090506101249190610128565b5090565b5b80821115610141576000816000905550600101610129565b5090565b7f4e487b7100000000000000000000000000000000000000000000000000000000600052602260045260246000fd5b6000600282049050600182168061018c57607f821691505b602082108114156101a05761019f610145565b5b50919050565b610551806101b56000396000f3fe608060405234801561001057600080fd5b50600436106100415760003560e01c8063368b8772146100465780638da5cb5b14610062578063ce6d41de14610080575b600080fd5b610060600480360381019061005b919061036b565b61009e565b005b61006a6100b8565b60405161007791906103f5565b60405180910390f35b6100886100dc565b6040516100959190610498565b60405180910390f35b80600190805190602001906100b492919061016e565b5050565b60008054906101000a900473ffffffffffffffffffffffffffffffffffffffff1681565b6060600180546100eb906104e9565b80601f0160208091040260200160405190810160405280929190818152602001828054610117906104e9565b80156101645780601f1061013957610100808354040283529160200191610164565b820191906000526020600020905b81548152906001019060200180831161014757829003601f168201915b5050505050905090565b82805461017a906104e9565b90600052602060002090601f01602090048101928261019c57600085556101e3565b82601f106101b557805160ff19168380011785556101e3565b828001600101855582156101e3579182015b828111156101e25782518255916020019190600101906101c7565b5b5090506101f091906101f4565b5090565b5b8082111561020d5760008160009055506001016101f5565b5090565b6000604051905090565b600080fd5b600080fd5b600080fd5b600080fd5b6000601f19601f8301169050919050565b7f4e487b7100000000000000000000000000000000000000000000000000000000600052604160045260246000fd5b6102788261022f565b810181811067ffffffffffffffff8211171561029757610296610240565b5b80604052505050565b60006102aa610211565b90506102b6828261026f565b919050565b600067ffffffffffffffff8211156102d6576102d5610240565b5b6102df8261022f565b9050602081019050919050565b82818337600083830152505050565b600061030e610309846102bb565b6102a0565b90508281526020810184848401111561032a5761032961022a565b5b6103358482856102ec565b509392505050565b600082601f83011261035257610351610225565b5b81356103628482602086016102fb565b91505092915050565b6000602082840312156103815761038061021b565b5b600082013567ffffffffffffffff81111561039f5761039e610220565b5b6103ab8482850161033d565b91505092915050565b600073ffffffffffffffffffffffffffffffffffffffff82169050919050565b60006103df826103b4565b9050919050565b6103ef816103d4565b82525050565b600060208201905061040a60008301846103e6565b92915050565b600081519050919050565b600082825260208201905092915050565b60005b8381101561044a57808201518184015260208101905061042f565b83811115610459576000848401525b50505050565b600061046a82610410565b610474818561041b565b935061048481856020860161042c565b61048d8161022f565b840191505092915050565b600060208201905081810360008301526104b2818461045f565b905092915050565b7f4e487b7100000000000000000000000000000000000000000000000000000000600052602260045260246000fd5b6000600282049050600182168061050157607f821691505b60208210811415610515576105146104ba565b5b5091905056fea26469706673582212201e803e379700f0b1dadd8be990b10ce794d55d20c0125fc150eb2080052269fa64736f6c63430008090033",
  "linkReferences": {},
  "deployedLinkReferences": {}
}