{
  "_format": "hh-sol-artifact-1",
  "contractName": "DummyDefiAdapter",
  "sourceName": "contracts/defi-adapter/DummyDefiAdpater.sol",
  "abi": [
    {
      "inputs": [],
      "stateMutability": "nonpayable",
      "type": "constructor"
    },
    {
      "anonymous": false,
      "inputs": [
        {
          "indexed": true,
          "internalType": "address",
          "name": "owner",
          "type": "address"
        },
        {
          "indexed": true,
          "internalType": "address",
          "name": "spender",
          "type": "address"
        },
        {
          "indexed": false,
          "internalType": "uint256",
          "name": "value",
          "type": "uint256"
        }
      ],
      "name": "Approval",
      "type": "event"
    },
    {
      "anonymous": false,
      "inputs": [
        {
          "indexed": true,
          "internalType": "address",
          "name": "from",
          "type": "address"
        },
        {
          "indexed": true,
          "internalType": "address",
          "name": "to",
          "type": "address"
        },
        {
          "indexed": false,
          "internalType": "uint256",
          "name": "value",
          "type": "uint256"
        }
      ],
      "name": "Transfer",
      "type": "event"
    },
    {
      "inputs": [
        {
          "internalType": "address",
          "name": "owner",
          "type": "address"
        },
        {
          "internalType": "address",
          "name": "spender",
          "type": "address"
        }
      ],
      "name": "allowance",
      "outputs": [
        {
          "internalType": "uint256",
          "name": "",
          "type": "uint256"
        }
      ],
      "stateMutability": "view",
      "type": "function"
    },
    {
      "inputs": [
        {
          "internalType": "address",
          "name": "spender",
          "type": "address"
        },
        {
          "internalType": "uint256",
          "name": "amount",
          "type": "uint256"
        }
      ],
      "name": "approve",
      "outputs": [
        {
          "internalType": "bool",
          "name": "",
          "type": "bool"
        }
      ],
      "stateMutability": "nonpayable",
      "type": "function"
    },
    {
      "inputs": [
        {
          "internalType": "address",
          "name": "account",
          "type": "address"
        }
      ],
      "name": "balanceOf",
      "outputs": [
        {
          "internalType": "uint256",
          "name": "",
          "type": "uint256"
        }
      ],
      "stateMutability": "view",
      "type": "function"
    },
    {
      "inputs": [],
      "name": "decimals",
      "outputs": [
        {
          "internalType": "uint8",
          "name": "",
          "type": "uint8"
        }
      ],
      "stateMutability": "view",
      "type": "function"
    },
    {
      "inputs": [
        {
          "internalType": "address",
          "name": "spender",
          "type": "address"
        },
        {
          "internalType": "uint256",
          "name": "subtractedValue",
          "type": "uint256"
        }
      ],
      "name": "decreaseAllowance",
      "outputs": [
        {
          "internalType": "bool",
          "name": "",
          "type": "bool"
        }
      ],
      "stateMutability": "nonpayable",
      "type": "function"
    },
    {
      "inputs": [],
      "name": "deposit",
      "outputs": [],
      "stateMutability": "payable",
      "type": "function"
    },
    {
      "inputs": [],
      "name": "getBalance",
      "outputs": [
        {
          "internalType": "uint256",
          "name": "senderBalance",
          "type": "uint256"
        }
      ],
      "stateMutability": "view",
      "type": "function"
    },
    {
      "inputs": [
        {
          "internalType": "address",
          "name": "spender",
          "type": "address"
        },
        {
          "internalType": "uint256",
          "name": "addedValue",
          "type": "uint256"
        }
      ],
      "name": "increaseAllowance",
      "outputs": [
        {
          "internalType": "bool",
          "name": "",
          "type": "bool"
        }
      ],
      "stateMutability": "nonpayable",
      "type": "function"
    },
    {
      "inputs": [],
      "name": "name",
      "outputs": [
        {
          "internalType": "string",
          "name": "",
          "type": "string"
        }
      ],
      "stateMutability": "view",
      "type": "function"
    },
    {
      "inputs": [],
      "name": "symbol",
      "outputs": [
        {
          "internalType": "string",
          "name": "",
          "type": "string"
        }
      ],
      "stateMutability": "view",
      "type": "function"
    },
    {
      "inputs": [],
      "name": "totalSupply",
      "outputs": [
        {
          "internalType": "uint256",
          "name": "",
          "type": "uint256"
        }
      ],
      "stateMutability": "view",
      "type": "function"
    },
    {
      "inputs": [
        {
          "internalType": "address",
          "name": "recipient",
          "type": "address"
        },
        {
          "internalType": "uint256",
          "name": "amount",
          "type": "uint256"
        }
      ],
      "name": "transfer",
      "outputs": [
        {
          "internalType": "bool",
          "name": "",
          "type": "bool"
        }
      ],
      "stateMutability": "nonpayable",
      "type": "function"
    },
    {
      "inputs": [
        {
          "internalType": "address",
          "name": "sender",
          "type": "address"
        },
        {
          "internalType": "address",
          "name": "recipient",
          "type": "address"
        },
        {
          "internalType": "uint256",
          "name": "amount",
          "type": "uint256"
        }
      ],
      "name": "transferFrom",
      "outputs": [
        {
          "internalType": "bool",
          "name": "",
          "type": "bool"
        }
      ],
      "stateMutability": "nonpayable",
      "type": "function"
    },
    {
      "inputs": [
        {
          "internalType": "uint256",
          "name": "amount",
          "type": "uint256"
        }
      ],
      "name": "withdraw",
      "outputs": [],
      "stateMutability": "nonpayable",
      "type": "function"
    }
  ],
  "bytecode": "0x60806040523480156200001157600080fd5b506040518060400160405280602081526020017f44756d6d794465666941646170746572436f6e7472616374456d756c61746f728152506040518060400160405280600581526020017f4444414345000000000000000000000000000000000000000000000000000000815250816003908051906020019062000096929190620000b8565b508060049080519060200190620000af929190620000b8565b505050620001cd565b828054620000c69062000197565b90600052602060002090601f016020900481019282620000ea576000855562000136565b82601f106200010557805160ff191683800117855562000136565b8280016001018555821562000136579182015b828111156200013557825182559160200191906001019062000118565b5b50905062000145919062000149565b5090565b5b80821115620001645760008160009055506001016200014a565b5090565b7f4e487b7100000000000000000000000000000000000000000000000000000000600052602260045260246000fd5b60006002820490506001821680620001b057607f821691505b60208210811415620001c757620001c662000168565b5b50919050565b611ae780620001dd6000396000f3fe6080604052600436106100dd5760003560e01c8063395093511161007f578063a457c2d711610059578063a457c2d7146102d6578063a9059cbb14610313578063d0e30db014610350578063dd62ed3e1461035a576100dd565b8063395093511461023157806370a082311461026e57806395d89b41146102ab576100dd565b806318160ddd116100bb57806318160ddd1461017557806323b872dd146101a05780632e1a7d4d146101dd578063313ce56714610206576100dd565b806306fdde03146100e2578063095ea7b31461010d57806312065fe01461014a575b600080fd5b3480156100ee57600080fd5b506100f7610397565b6040516101049190611296565b60405180910390f35b34801561011957600080fd5b50610134600480360381019061012f9190611351565b610429565b60405161014191906113ac565b60405180910390f35b34801561015657600080fd5b5061015f610447565b60405161016c91906113d6565b60405180910390f35b34801561018157600080fd5b5061018a6104cd565b60405161019791906113d6565b60405180910390f35b3480156101ac57600080fd5b506101c760048036038101906101c291906113f1565b6104d7565b6040516101d491906113ac565b60405180910390f35b3480156101e957600080fd5b5061020460048036038101906101ff9190611444565b6105cf565b005b34801561021257600080fd5b5061021b610732565b604051610228919061148d565b60405180910390f35b34801561023d57600080fd5b5061025860048036038101906102539190611351565b61073b565b60405161026591906113ac565b60405180910390f35b34801561027a57600080fd5b50610295600480360381019061029091906114a8565b6107e7565b6040516102a291906113d6565b60405180910390f35b3480156102b757600080fd5b506102c061082f565b6040516102cd9190611296565b60405180910390f35b3480156102e257600080fd5b506102fd60048036038101906102f89190611351565b6108c1565b60405161030a91906113ac565b60405180910390f35b34801561031f57600080fd5b5061033a60048036038101906103359190611351565b6109ac565b60405161034791906113ac565b60405180910390f35b6103586109ca565b005b34801561036657600080fd5b50610381600480360381019061037c91906114d5565b610bb7565b60405161038e91906113d6565b60405180910390f35b6060600380546103a690611544565b80601f01602080910402602001604051908101604052809291908181526020018280546103d290611544565b801561041f5780601f106103f45761010080835404028352916020019161041f565b820191906000526020600020905b81548152906001019060200180831161040257829003601f168201915b5050505050905090565b600061043d610436610c3e565b8484610c46565b6001905092915050565b60006104886040518060400160405280601481526020017f67657442616c616e63652063616c6c656420627900000000000000000000000081525033610e11565b600560003373ffffffffffffffffffffffffffffffffffffffff1673ffffffffffffffffffffffffffffffffffffffff16815260200190815260200160002054905090565b6000600254905090565b60006104e4848484610ead565b6000600160008673ffffffffffffffffffffffffffffffffffffffff1673ffffffffffffffffffffffffffffffffffffffff168152602001908152602001600020600061052f610c3e565b73ffffffffffffffffffffffffffffffffffffffff1673ffffffffffffffffffffffffffffffffffffffff168152602001908152602001600020549050828110156105af576040517f08c379a00000000000000000000000000000000000000000000000000000000081526004016105a6906115e8565b60405180910390fd5b6105c3856105bb610c3e565b858403610c46565b60019150509392505050565b61060e6040518060400160405280601381526020017f77697468647261773a2063616c6c65642062790000000000000000000000000081525033610e11565b61064d6040518060400160405280601581526020017f77697468647261773a20666f7220616d6f756e742000000000000000000000008152508261112e565b6106cb6040518060400160405280601781526020017f77697468647261773a20776974682062616c616e636520000000000000000000815250600560003373ffffffffffffffffffffffffffffffffffffffff1673ffffffffffffffffffffffffffffffffffffffff1681526020019081526020016000205461112e565b6106ed604051806060016040528060258152602001611a69602591394761112e565b80600560003373ffffffffffffffffffffffffffffffffffffffff1673ffffffffffffffffffffffffffffffffffffffff168152602001908152602001600020505050565b60006012905090565b60006107dd610748610c3e565b848460016000610756610c3e565b73ffffffffffffffffffffffffffffffffffffffff1673ffffffffffffffffffffffffffffffffffffffff16815260200190815260200160002060008873ffffffffffffffffffffffffffffffffffffffff1673ffffffffffffffffffffffffffffffffffffffff168152602001908152602001600020546107d89190611637565b610c46565b6001905092915050565b60008060008373ffffffffffffffffffffffffffffffffffffffff1673ffffffffffffffffffffffffffffffffffffffff168152602001908152602001600020549050919050565b60606004805461083e90611544565b80601f016020809104026020016040519081016040528092919081815260200182805461086a90611544565b80156108b75780601f1061088c576101008083540402835291602001916108b7565b820191906000526020600020905b81548152906001019060200180831161089a57829003601f168201915b5050505050905090565b600080600160006108d0610c3e565b73ffffffffffffffffffffffffffffffffffffffff1673ffffffffffffffffffffffffffffffffffffffff16815260200190815260200160002060008573ffffffffffffffffffffffffffffffffffffffff1673ffffffffffffffffffffffffffffffffffffffff1681526020019081526020016000205490508281101561098d576040517f08c379a0000000000000000000000000000000000000000000000000000000008152600401610984906116ff565b60405180910390fd5b6109a1610998610c3e565b85858403610c46565b600191505092915050565b60006109c06109b9610c3e565b8484610ead565b6001905092915050565b610a096040518060400160405280601281526020017f6465706f7369743a2063616c6c6564206279000000000000000000000000000081525033610e11565b610a486040518060400160405280601381526020017f6465706f7369743a20776974682076616c7565000000000000000000000000008152503461112e565b610a876040518060400160405280601a81526020017f6465706f7369743a207472616e7366657265642076616c7565200000000000008152503461112e565b610aa9604051806060016040528060248152602001611a8e602491394761112e565b34600560003373ffffffffffffffffffffffffffffffffffffffff1673ffffffffffffffffffffffffffffffffffffffff16815260200190815260200160002054610af49190611637565b600560003373ffffffffffffffffffffffffffffffffffffffff1673ffffffffffffffffffffffffffffffffffffffff16815260200190815260200160002081905550610bb56040518060400160405280602081526020017f6465706f7369743a206d73672073656e6465722062616c616e63652069733a20815250600560003373ffffffffffffffffffffffffffffffffffffffff1673ffffffffffffffffffffffffffffffffffffffff1681526020019081526020016000205461112e565b565b6000600160008473ffffffffffffffffffffffffffffffffffffffff1673ffffffffffffffffffffffffffffffffffffffff16815260200190815260200160002060008373ffffffffffffffffffffffffffffffffffffffff1673ffffffffffffffffffffffffffffffffffffffff16815260200190815260200160002054905092915050565b600033905090565b600073ffffffffffffffffffffffffffffffffffffffff168373ffffffffffffffffffffffffffffffffffffffff161415610cb6576040517f08c379a0000000000000000000000000000000000000000000000000000000008152600401610cad90611791565b60405180910390fd5b600073ffffffffffffffffffffffffffffffffffffffff168273ffffffffffffffffffffffffffffffffffffffff161415610d26576040517f08c379a0000000000000000000000000000000000000000000000000000000008152600401610d1d90611823565b60405180910390fd5b80600160008573ffffffffffffffffffffffffffffffffffffffff1673ffffffffffffffffffffffffffffffffffffffff16815260200190815260200160002060008473ffffffffffffffffffffffffffffffffffffffff1673ffffffffffffffffffffffffffffffffffffffff168152602001908152602001600020819055508173ffffffffffffffffffffffffffffffffffffffff168373ffffffffffffffffffffffffffffffffffffffff167f8c5be1e5ebec7d5bd14f71427d1e84f3dd0314c0f7b2291e5b200ac8c7c3b92583604051610e0491906113d6565b60405180910390a3505050565b610ea98282604051602401610e27929190611852565b6040516020818303038152906040527f319af333000000000000000000000000000000000000000000000000000000007bffffffffffffffffffffffffffffffffffffffffffffffffffffffff19166020820180517bffffffffffffffffffffffffffffffffffffffffffffffffffffffff83818316178352505050506111ca565b5050565b600073ffffffffffffffffffffffffffffffffffffffff168373ffffffffffffffffffffffffffffffffffffffff161415610f1d576040517f08c379a0000000000000000000000000000000000000000000000000000000008152600401610f14906118f4565b60405180910390fd5b600073ffffffffffffffffffffffffffffffffffffffff168273ffffffffffffffffffffffffffffffffffffffff161415610f8d576040517f08c379a0000000000000000000000000000000000000000000000000000000008152600401610f8490611986565b60405180910390fd5b610f988383836111f3565b60008060008573ffffffffffffffffffffffffffffffffffffffff1673ffffffffffffffffffffffffffffffffffffffff1681526020019081526020016000205490508181101561101e576040517f08c379a000000000000000000000000000000000000000000000000000000000815260040161101590611a18565b60405180910390fd5b8181036000808673ffffffffffffffffffffffffffffffffffffffff1673ffffffffffffffffffffffffffffffffffffffff16815260200190815260200160002081905550816000808573ffffffffffffffffffffffffffffffffffffffff1673ffffffffffffffffffffffffffffffffffffffff16815260200190815260200160002060008282546110b19190611637565b925050819055508273ffffffffffffffffffffffffffffffffffffffff168473ffffffffffffffffffffffffffffffffffffffff167fddf252ad1be2c89b69c2b068fc378daa952ba7f163c4a11628f55a4df523b3ef8460405161111591906113d6565b60405180910390a36111288484846111f8565b50505050565b6111c68282604051602401611144929190611a38565b6040516020818303038152906040527f9710a9d0000000000000000000000000000000000000000000000000000000007bffffffffffffffffffffffffffffffffffffffffffffffffffffffff19166020820180517bffffffffffffffffffffffffffffffffffffffffffffffffffffffff83818316178352505050506111ca565b5050565b60008151905060006a636f6e736f6c652e6c6f679050602083016000808483855afa5050505050565b505050565b505050565b600081519050919050565b600082825260208201905092915050565b60005b8381101561123757808201518184015260208101905061121c565b83811115611246576000848401525b50505050565b6000601f19601f8301169050919050565b6000611268826111fd565b6112728185611208565b9350611282818560208601611219565b61128b8161124c565b840191505092915050565b600060208201905081810360008301526112b0818461125d565b905092915050565b600080fd5b600073ffffffffffffffffffffffffffffffffffffffff82169050919050565b60006112e8826112bd565b9050919050565b6112f8816112dd565b811461130357600080fd5b50565b600081359050611315816112ef565b92915050565b6000819050919050565b61132e8161131b565b811461133957600080fd5b50565b60008135905061134b81611325565b92915050565b60008060408385031215611368576113676112b8565b5b600061137685828601611306565b92505060206113878582860161133c565b9150509250929050565b60008115159050919050565b6113a681611391565b82525050565b60006020820190506113c1600083018461139d565b92915050565b6113d08161131b565b82525050565b60006020820190506113eb60008301846113c7565b92915050565b60008060006060848603121561140a576114096112b8565b5b600061141886828701611306565b935050602061142986828701611306565b925050604061143a8682870161133c565b9150509250925092565b60006020828403121561145a576114596112b8565b5b60006114688482850161133c565b91505092915050565b600060ff82169050919050565b61148781611471565b82525050565b60006020820190506114a2600083018461147e565b92915050565b6000602082840312156114be576114bd6112b8565b5b60006114cc84828501611306565b91505092915050565b600080604083850312156114ec576114eb6112b8565b5b60006114fa85828601611306565b925050602061150b85828601611306565b9150509250929050565b7f4e487b7100000000000000000000000000000000000000000000000000000000600052602260045260246000fd5b6000600282049050600182168061155c57607f821691505b602082108114156115705761156f611515565b5b50919050565b7f45524332303a207472616e7366657220616d6f756e742065786365656473206160008201527f6c6c6f77616e6365000000000000000000000000000000000000000000000000602082015250565b60006115d2602883611208565b91506115dd82611576565b604082019050919050565b60006020820190508181036000830152611601816115c5565b9050919050565b7f4e487b7100000000000000000000000000000000000000000000000000000000600052601160045260246000fd5b60006116428261131b565b915061164d8361131b565b9250827fffffffffffffffffffffffffffffffffffffffffffffffffffffffffffffffff0382111561168257611681611608565b5b828201905092915050565b7f45524332303a2064656372656173656420616c6c6f77616e63652062656c6f7760008201527f207a65726f000000000000000000000000000000000000000000000000000000602082015250565b60006116e9602583611208565b91506116f48261168d565b604082019050919050565b60006020820190508181036000830152611718816116dc565b9050919050565b7f45524332303a20617070726f76652066726f6d20746865207a65726f2061646460008201527f7265737300000000000000000000000000000000000000000000000000000000602082015250565b600061177b602483611208565b91506117868261171f565b604082019050919050565b600060208201905081810360008301526117aa8161176e565b9050919050565b7f45524332303a20617070726f766520746f20746865207a65726f20616464726560008201527f7373000000000000000000000000000000000000000000000000000000000000602082015250565b600061180d602283611208565b9150611818826117b1565b604082019050919050565b6000602082019050818103600083015261183c81611800565b9050919050565b61184c816112dd565b82525050565b6000604082019050818103600083015261186c818561125d565b905061187b6020830184611843565b9392505050565b7f45524332303a207472616e736665722066726f6d20746865207a65726f20616460008201527f6472657373000000000000000000000000000000000000000000000000000000602082015250565b60006118de602583611208565b91506118e982611882565b604082019050919050565b6000602082019050818103600083015261190d816118d1565b9050919050565b7f45524332303a207472616e7366657220746f20746865207a65726f206164647260008201527f6573730000000000000000000000000000000000000000000000000000000000602082015250565b6000611970602383611208565b915061197b82611914565b604082019050919050565b6000602082019050818103600083015261199f81611963565b9050919050565b7f45524332303a207472616e7366657220616d6f756e742065786365656473206260008201527f616c616e63650000000000000000000000000000000000000000000000000000602082015250565b6000611a02602683611208565b9150611a0d826119a6565b604082019050919050565b60006020820190508181036000830152611a31816119f5565b9050919050565b60006040820190508181036000830152611a52818561125d565b9050611a6160208301846113c7565b939250505056fe77697468647261773a2063757272656e7420636f6e74726163742076616c75652069733a206465706f7369743a2063757272656e7420636f6e74726163742076616c75652069733a20a2646970667358221220544749c55bb1bcb6100e5a94a02c41fb69d748ac75455335a97fb58e61c6bca364736f6c63430008090033",
  "linkReferences": {},
  "deployedLinkReferences": {}
}