{
  "_format": "hh-sol-artifact-1",
  "contractName": "AxaFundContract",
  "sourceName": "contracts/axa-fund-contract/AxaFundContract.sol",
  "abi": [
    {
      "inputs": [],
      "stateMutability": "nonpayable",
      "type": "constructor"
    },
    {
      "anonymous": false,
      "inputs": [
        {
          "indexed": true,
          "internalType": "address",
          "name": "owner",
          "type": "address"
        },
        {
          "indexed": true,
          "internalType": "address",
          "name": "spender",
          "type": "address"
        },
        {
          "indexed": false,
          "internalType": "uint256",
          "name": "value",
          "type": "uint256"
        }
      ],
      "name": "Approval",
      "type": "event"
    },
    {
      "anonymous": false,
      "inputs": [
        {
          "indexed": true,
          "internalType": "address",
          "name": "previousOwner",
          "type": "address"
        },
        {
          "indexed": true,
          "internalType": "address",
          "name": "newOwner",
          "type": "address"
        }
      ],
      "name": "OwnershipTransferred",
      "type": "event"
    },
    {
      "anonymous": false,
      "inputs": [
        {
          "indexed": true,
          "internalType": "address",
          "name": "from",
          "type": "address"
        },
        {
          "indexed": true,
          "internalType": "address",
          "name": "to",
          "type": "address"
        },
        {
          "indexed": false,
          "internalType": "uint256",
          "name": "value",
          "type": "uint256"
        }
      ],
      "name": "Transfer",
      "type": "event"
    },
    {
      "inputs": [
        {
          "internalType": "address",
          "name": "defiAdapterAddress",
          "type": "address"
        }
      ],
      "name": "addDefiAdapter",
      "outputs": [],
      "stateMutability": "nonpayable",
      "type": "function"
    },
    {
      "inputs": [
        {
          "internalType": "address",
          "name": "owner",
          "type": "address"
        },
        {
          "internalType": "address",
          "name": "spender",
          "type": "address"
        }
      ],
      "name": "allowance",
      "outputs": [
        {
          "internalType": "uint256",
          "name": "",
          "type": "uint256"
        }
      ],
      "stateMutability": "view",
      "type": "function"
    },
    {
      "inputs": [
        {
          "internalType": "address",
          "name": "spender",
          "type": "address"
        },
        {
          "internalType": "uint256",
          "name": "amount",
          "type": "uint256"
        }
      ],
      "name": "approve",
      "outputs": [
        {
          "internalType": "bool",
          "name": "",
          "type": "bool"
        }
      ],
      "stateMutability": "nonpayable",
      "type": "function"
    },
    {
      "inputs": [
        {
          "internalType": "address",
          "name": "account",
          "type": "address"
        }
      ],
      "name": "balanceOf",
      "outputs": [
        {
          "internalType": "uint256",
          "name": "",
          "type": "uint256"
        }
      ],
      "stateMutability": "view",
      "type": "function"
    },
    {
      "inputs": [],
      "name": "decimals",
      "outputs": [
        {
          "internalType": "uint8",
          "name": "",
          "type": "uint8"
        }
      ],
      "stateMutability": "view",
      "type": "function"
    },
    {
      "inputs": [
        {
          "internalType": "address",
          "name": "spender",
          "type": "address"
        },
        {
          "internalType": "uint256",
          "name": "subtractedValue",
          "type": "uint256"
        }
      ],
      "name": "decreaseAllowance",
      "outputs": [
        {
          "internalType": "bool",
          "name": "",
          "type": "bool"
        }
      ],
      "stateMutability": "nonpayable",
      "type": "function"
    },
    {
      "inputs": [],
      "name": "depositETH",
      "outputs": [],
      "stateMutability": "payable",
      "type": "function"
    },
    {
      "inputs": [],
      "name": "getAxaFundTokenAddress",
      "outputs": [
        {
          "internalType": "address",
          "name": "",
          "type": "address"
        }
      ],
      "stateMutability": "view",
      "type": "function"
    },
    {
      "inputs": [],
      "name": "getDefiAdapterBalances",
      "outputs": [
        {
          "components": [
            {
              "internalType": "address",
              "name": "defiAdapterAddress",
              "type": "address"
            },
            {
              "internalType": "uint256",
              "name": "percentage",
              "type": "uint256"
            },
            {
              "internalType": "uint256",
              "name": "investmentAmount",
              "type": "uint256"
            }
          ],
          "internalType": "struct AxaFundContract.DefiAdapterBalance[]",
          "name": "",
          "type": "tuple[]"
        }
      ],
      "stateMutability": "view",
      "type": "function"
    },
    {
      "inputs": [
        {
          "internalType": "address",
          "name": "spender",
          "type": "address"
        },
        {
          "internalType": "uint256",
          "name": "addedValue",
          "type": "uint256"
        }
      ],
      "name": "increaseAllowance",
      "outputs": [
        {
          "internalType": "bool",
          "name": "",
          "type": "bool"
        }
      ],
      "stateMutability": "nonpayable",
      "type": "function"
    },
    {
      "inputs": [],
      "name": "name",
      "outputs": [
        {
          "internalType": "string",
          "name": "",
          "type": "string"
        }
      ],
      "stateMutability": "view",
      "type": "function"
    },
    {
      "inputs": [],
      "name": "owner",
      "outputs": [
        {
          "internalType": "address",
          "name": "",
          "type": "address"
        }
      ],
      "stateMutability": "view",
      "type": "function"
    },
    {
      "inputs": [
        {
          "components": [
            {
              "internalType": "address",
              "name": "defiAdapterAddress",
              "type": "address"
            },
            {
              "internalType": "uint256",
              "name": "percentage",
              "type": "uint256"
            },
            {
              "internalType": "uint256",
              "name": "investmentAmount",
              "type": "uint256"
            }
          ],
          "internalType": "struct AxaFundContract.DefiAdapterBalance[]",
          "name": "newDefiAdapterBalances",
          "type": "tuple[]"
        }
      ],
      "name": "rebalanceDefiAdaptersPercentage",
      "outputs": [],
      "stateMutability": "nonpayable",
      "type": "function"
    },
    {
      "inputs": [],
      "name": "reinvest",
      "outputs": [],
      "stateMutability": "nonpayable",
      "type": "function"
    },
    {
      "inputs": [],
      "name": "renounceOwnership",
      "outputs": [],
      "stateMutability": "nonpayable",
      "type": "function"
    },
    {
      "inputs": [
        {
          "internalType": "address",
          "name": "axaFundTokenAddress",
          "type": "address"
        }
      ],
      "name": "replaceAxaFundTokenAddress",
      "outputs": [],
      "stateMutability": "nonpayable",
      "type": "function"
    },
    {
      "inputs": [],
      "name": "symbol",
      "outputs": [
        {
          "internalType": "string",
          "name": "",
          "type": "string"
        }
      ],
      "stateMutability": "view",
      "type": "function"
    },
    {
      "inputs": [],
      "name": "totalSupply",
      "outputs": [
        {
          "internalType": "uint256",
          "name": "",
          "type": "uint256"
        }
      ],
      "stateMutability": "view",
      "type": "function"
    },
    {
      "inputs": [
        {
          "internalType": "address",
          "name": "recipient",
          "type": "address"
        },
        {
          "internalType": "uint256",
          "name": "amount",
          "type": "uint256"
        }
      ],
      "name": "transfer",
      "outputs": [
        {
          "internalType": "bool",
          "name": "",
          "type": "bool"
        }
      ],
      "stateMutability": "nonpayable",
      "type": "function"
    },
    {
      "inputs": [
        {
          "internalType": "address",
          "name": "sender",
          "type": "address"
        },
        {
          "internalType": "address",
          "name": "recipient",
          "type": "address"
        },
        {
          "internalType": "uint256",
          "name": "amount",
          "type": "uint256"
        }
      ],
      "name": "transferFrom",
      "outputs": [
        {
          "internalType": "bool",
          "name": "",
          "type": "bool"
        }
      ],
      "stateMutability": "nonpayable",
      "type": "function"
    },
    {
      "inputs": [
        {
          "internalType": "address",
          "name": "newOwner",
          "type": "address"
        }
      ],
      "name": "transferOwnership",
      "outputs": [],
      "stateMutability": "nonpayable",
      "type": "function"
    },
    {
      "inputs": [
        {
          "internalType": "uint256",
          "name": "amount",
          "type": "uint256"
        }
      ],
      "name": "withdrawETH",
      "outputs": [],
      "stateMutability": "nonpayable",
      "type": "function"
    }
  ],
  "bytecode": "0x60806040523480156200001157600080fd5b506040518060400160405280600f81526020017f41786146756e64436f6e747261637400000000000000000000000000000000008152506040518060400160405280600381526020017f4146430000000000000000000000000000000000000000000000000000000000815250816003908051906020019062000096929190620001a6565b508060049080519060200190620000af929190620001a6565b505050620000d2620000c6620000d860201b60201c565b620000e060201b60201c565b620002bb565b600033905090565b6000600560009054906101000a900473ffffffffffffffffffffffffffffffffffffffff16905081600560006101000a81548173ffffffffffffffffffffffffffffffffffffffff021916908373ffffffffffffffffffffffffffffffffffffffff1602179055508173ffffffffffffffffffffffffffffffffffffffff168173ffffffffffffffffffffffffffffffffffffffff167f8be0079c531659141344cd1fd0a4f28419497f9722a3daafe3b4186f6b6457e060405160405180910390a35050565b828054620001b49062000285565b90600052602060002090601f016020900481019282620001d8576000855562000224565b82601f10620001f357805160ff191683800117855562000224565b8280016001018555821562000224579182015b828111156200022357825182559160200191906001019062000206565b5b50905062000233919062000237565b5090565b5b808211156200025257600081600090555060010162000238565b5090565b7f4e487b7100000000000000000000000000000000000000000000000000000000600052602260045260246000fd5b600060028204905060018216806200029e57607f821691505b60208210811415620002b557620002b462000256565b5b50919050565b6131bf80620002cb6000396000f3fe6080604052600436106101355760003560e01c806395d89b41116100ab578063dd62ed3e1161006f578063dd62ed3e1461043e578063e39a8fd81461047b578063f14210a6146104a4578063f2fde38b146104cd578063f6326fb3146104f6578063fdb5a03e1461050057610135565b806395d89b41146103435780639d8f3f7d1461036e578063a457c2d714610399578063a9059cbb146103d6578063d29715e41461041357610135565b8063313ce567116100fd578063313ce56714610233578063395093511461025e5780634f79b13f1461029b57806370a08231146102c4578063715018a6146103015780638da5cb5b1461031857610135565b806306fdde031461013a578063095ea7b31461016557806318160ddd146101a257806323b872dd146101cd57806325774e861461020a575b600080fd5b34801561014657600080fd5b5061014f610517565b60405161015c9190612391565b60405180910390f35b34801561017157600080fd5b5061018c6004803603810190610187919061245b565b6105a9565b60405161019991906124b6565b60405180910390f35b3480156101ae57600080fd5b506101b76105c7565b6040516101c491906124e0565b60405180910390f35b3480156101d957600080fd5b506101f460048036038101906101ef91906124fb565b6105d1565b60405161020191906124b6565b60405180910390f35b34801561021657600080fd5b50610231600480360381019061022c919061254e565b6106c9565b005b34801561023f57600080fd5b50610248610806565b6040516102559190612597565b60405180910390f35b34801561026a57600080fd5b506102856004803603810190610280919061245b565b61080f565b60405161029291906124b6565b60405180910390f35b3480156102a757600080fd5b506102c260048036038101906102bd9190612763565b6108bb565b005b3480156102d057600080fd5b506102eb60048036038101906102e6919061254e565b610c5b565b6040516102f891906124e0565b60405180910390f35b34801561030d57600080fd5b50610316610ca3565b005b34801561032457600080fd5b5061032d610d2b565b60405161033a91906127bb565b60405180910390f35b34801561034f57600080fd5b50610358610d55565b6040516103659190612391565b60405180910390f35b34801561037a57600080fd5b50610383610de7565b60405161039091906128e5565b60405180910390f35b3480156103a557600080fd5b506103c060048036038101906103bb919061245b565b610f11565b6040516103cd91906124b6565b60405180910390f35b3480156103e257600080fd5b506103fd60048036038101906103f8919061245b565b610ffc565b60405161040a91906124b6565b60405180910390f35b34801561041f57600080fd5b5061042861101a565b60405161043591906127bb565b60405180910390f35b34801561044a57600080fd5b5061046560048036038101906104609190612907565b611044565b60405161047291906124e0565b60405180910390f35b34801561048757600080fd5b506104a2600480360381019061049d919061254e565b6110cb565b005b3480156104b057600080fd5b506104cb60048036038101906104c69190612947565b61118b565b005b3480156104d957600080fd5b506104f460048036038101906104ef919061254e565b611421565b005b6104fe611519565b005b34801561050c57600080fd5b5061051561187c565b005b606060038054610526906129a3565b80601f0160208091040260200160405190810160405280929190818152602001828054610552906129a3565b801561059f5780601f106105745761010080835404028352916020019161059f565b820191906000526020600020905b81548152906001019060200180831161058257829003601f168201915b5050505050905090565b60006105bd6105b6611bfa565b8484611c02565b6001905092915050565b6000600254905090565b60006105de848484611dcd565b6000600160008673ffffffffffffffffffffffffffffffffffffffff1673ffffffffffffffffffffffffffffffffffffffff1681526020019081526020016000206000610629611bfa565b73ffffffffffffffffffffffffffffffffffffffff1673ffffffffffffffffffffffffffffffffffffffff168152602001908152602001600020549050828110156106a9576040517f08c379a00000000000000000000000000000000000000000000000000000000081526004016106a090612a47565b60405180910390fd5b6106bd856106b5611bfa565b858403611c02565b60019150509392505050565b6106d1611bfa565b73ffffffffffffffffffffffffffffffffffffffff166106ef610d2b565b73ffffffffffffffffffffffffffffffffffffffff1614610745576040517f08c379a000000000000000000000000000000000000000000000000000000000815260040161073c90612ab3565b60405180910390fd5b60405180606001604052808273ffffffffffffffffffffffffffffffffffffffff16815260200160008152602001600081525060086000600954815260200190815260200160002060008201518160000160006101000a81548173ffffffffffffffffffffffffffffffffffffffff021916908373ffffffffffffffffffffffffffffffffffffffff1602179055506020820151816001015560408201518160020155905050600960008154809291906107fe90612b02565b919050555050565b60006012905090565b60006108b161081c611bfa565b84846001600061082a611bfa565b73ffffffffffffffffffffffffffffffffffffffff1673ffffffffffffffffffffffffffffffffffffffff16815260200190815260200160002060008873ffffffffffffffffffffffffffffffffffffffff1673ffffffffffffffffffffffffffffffffffffffff168152602001908152602001600020546108ac9190612b4b565b611c02565b6001905092915050565b6108c3611bfa565b73ffffffffffffffffffffffffffffffffffffffff166108e1610d2b565b73ffffffffffffffffffffffffffffffffffffffff1614610937576040517f08c379a000000000000000000000000000000000000000000000000000000000815260040161092e90612ab3565b60405180910390fd5b60005b8151811015610c575760005b600954811015610c435782828151811061096357610962612ba1565b5b60200260200101516000015173ffffffffffffffffffffffffffffffffffffffff166008600083815260200190815260200160002060000160009054906101000a900473ffffffffffffffffffffffffffffffffffffffff1673ffffffffffffffffffffffffffffffffffffffff161415610c3057610a1860405180606001604052806021815260200161316960219139848481518110610a0757610a06612ba1565b5b60200260200101516020015161204e565b828281518110610a2b57610a2a612ba1565b5b6020026020010151602001516008600083815260200190815260200160002060010181905550610aa66040518060400160405280601981526020017f6e657720616461707465722070657263656e7461676520697300000000000000815250600860008481526020019081526020016000206001015461204e565b6000610b3b600860008481526020019081526020016000206040518060600160405290816000820160009054906101000a900473ffffffffffffffffffffffffffffffffffffffff1673ffffffffffffffffffffffffffffffffffffffff1673ffffffffffffffffffffffffffffffffffffffff16815260200160018201548152602001600282015481525050600a546120ea565b90506000816008600085815260200190815260200160002060020154610b619190612bd0565b90506000811015610c29576008600084815260200190815260200160002060000160009054906101000a900473ffffffffffffffffffffffffffffffffffffffff1673ffffffffffffffffffffffffffffffffffffffff16632e1a7d4d826040518263ffffffff1660e01b8152600401610bdb91906124e0565b600060405180830381600087803b158015610bf557600080fd5b505af1158015610c09573d6000803e3d6000fd5b505050508160086000858152602001908152602001600020600201819055505b5050610c43565b8080610c3b90612b02565b915050610946565b508080610c4f90612b02565b91505061093a565b5050565b60008060008373ffffffffffffffffffffffffffffffffffffffff1673ffffffffffffffffffffffffffffffffffffffff168152602001908152602001600020549050919050565b610cab611bfa565b73ffffffffffffffffffffffffffffffffffffffff16610cc9610d2b565b73ffffffffffffffffffffffffffffffffffffffff1614610d1f576040517f08c379a0000000000000000000000000000000000000000000000000000000008152600401610d1690612ab3565b60405180910390fd5b610d296000612126565b565b6000600560009054906101000a900473ffffffffffffffffffffffffffffffffffffffff16905090565b606060048054610d64906129a3565b80601f0160208091040260200160405190810160405280929190818152602001828054610d90906129a3565b8015610ddd5780601f10610db257610100808354040283529160200191610ddd565b820191906000526020600020905b815481529060010190602001808311610dc057829003601f168201915b5050505050905090565b6060600060095467ffffffffffffffff811115610e0757610e066125b7565b5b604051908082528060200260200182016040528015610e4057816020015b610e2d6122c1565b815260200190600190039081610e255790505b50905060005b600954811015610f0957600860008281526020019081526020016000206040518060600160405290816000820160009054906101000a900473ffffffffffffffffffffffffffffffffffffffff1673ffffffffffffffffffffffffffffffffffffffff1673ffffffffffffffffffffffffffffffffffffffff16815260200160018201548152602001600282015481525050828281518110610eeb57610eea612ba1565b5b60200260200101819052508080610f0190612b02565b915050610e46565b508091505090565b60008060016000610f20611bfa565b73ffffffffffffffffffffffffffffffffffffffff1673ffffffffffffffffffffffffffffffffffffffff16815260200190815260200160002060008573ffffffffffffffffffffffffffffffffffffffff1673ffffffffffffffffffffffffffffffffffffffff16815260200190815260200160002054905082811015610fdd576040517f08c379a0000000000000000000000000000000000000000000000000000000008152600401610fd490612c76565b60405180910390fd5b610ff1610fe8611bfa565b85858403611c02565b600191505092915050565b6000611010611009611bfa565b8484611dcd565b6001905092915050565b6000600660009054906101000a900473ffffffffffffffffffffffffffffffffffffffff16905090565b6000600160008473ffffffffffffffffffffffffffffffffffffffff1673ffffffffffffffffffffffffffffffffffffffff16815260200190815260200160002060008373ffffffffffffffffffffffffffffffffffffffff1673ffffffffffffffffffffffffffffffffffffffff16815260200190815260200160002054905092915050565b6110d3611bfa565b73ffffffffffffffffffffffffffffffffffffffff166110f1610d2b565b73ffffffffffffffffffffffffffffffffffffffff1614611147576040517f08c379a000000000000000000000000000000000000000000000000000000000815260040161113e90612ab3565b60405180910390fd5b80600660006101000a81548173ffffffffffffffffffffffffffffffffffffffff021916908373ffffffffffffffffffffffffffffffffffffffff16021790555050565b60005b60095481101561138e57600061122b600860008481526020019081526020016000206040518060600160405290816000820160009054906101000a900473ffffffffffffffffffffffffffffffffffffffff1673ffffffffffffffffffffffffffffffffffffffff1673ffffffffffffffffffffffffffffffffffffffff16815260200160018201548152602001600282015481525050846120ea565b90506112d96040518060400160405280600f81526020017f776974686472617720616d6f756e740000000000000000000000000000000000815250826040518060400160405280600681526020017f2066726f6d2000000000000000000000000000000000000000000000000000008152506008600087815260200190815260200160002060000160009054906101000a900473ffffffffffffffffffffffffffffffffffffffff166121ec565b6008600083815260200190815260200160002060000160009054906101000a900473ffffffffffffffffffffffffffffffffffffffff1673ffffffffffffffffffffffffffffffffffffffff16632e1a7d4d826040518263ffffffff1660e01b815260040161134891906124e0565b600060405180830381600087803b15801561136257600080fd5b505af1158015611376573d6000803e3d6000fd5b5050505050808061138690612b02565b91505061118e565b50600660009054906101000a900473ffffffffffffffffffffffffffffffffffffffff1673ffffffffffffffffffffffffffffffffffffffff1663f3fef3a333836040518363ffffffff1660e01b81526004016113ec929190612c96565b600060405180830381600087803b15801561140657600080fd5b505af115801561141a573d6000803e3d6000fd5b5050505050565b611429611bfa565b73ffffffffffffffffffffffffffffffffffffffff16611447610d2b565b73ffffffffffffffffffffffffffffffffffffffff161461149d576040517f08c379a000000000000000000000000000000000000000000000000000000000815260040161149490612ab3565b60405180910390fd5b600073ffffffffffffffffffffffffffffffffffffffff168173ffffffffffffffffffffffffffffffffffffffff16141561150d576040517f08c379a000000000000000000000000000000000000000000000000000000000815260040161150490612d31565b60405180910390fd5b61151681612126565b50565b6115586040518060400160405280601181526020017f7472616e7366657265642076616c7565200000000000000000000000000000008152503461204e565b6115976040518060400160405280600f81526020017f636f6e74726163742076616c75652000000000000000000000000000000000008152504761204e565b60005b6009548110156117d6576000611637600860008481526020019081526020016000206040518060600160405290816000820160009054906101000a900473ffffffffffffffffffffffffffffffffffffffff1673ffffffffffffffffffffffffffffffffffffffff1673ffffffffffffffffffffffffffffffffffffffff16815260200160018201548152602001600282015481525050346120ea565b90506116e56040518060400160405280601081526020017f696e76657374696e6720616d6f756e7400000000000000000000000000000000815250826040518060400160405280600681526020017f20696e746f2000000000000000000000000000000000000000000000000000008152506008600087815260200190815260200160002060000160009054906101000a900473ffffffffffffffffffffffffffffffffffffffff166121ec565b60008111156117c2576008600083815260200190815260200160002060000160009054906101000a900473ffffffffffffffffffffffffffffffffffffffff1673ffffffffffffffffffffffffffffffffffffffff1663d0e30db0826040518263ffffffff1660e01b81526004016000604051808303818588803b15801561176c57600080fd5b505af1158015611780573d6000803e3d6000fd5b50505050508060086000848152602001908152602001600020600201546117a79190612b4b565b60086000848152602001908152602001600020600201819055505b5080806117ce90612b02565b91505061159a565b5034600a546117e59190612b4b565b600a81905550600660009054906101000a900473ffffffffffffffffffffffffffffffffffffffff1673ffffffffffffffffffffffffffffffffffffffff1663b9b8c24633346040518363ffffffff1660e01b8152600401611848929190612c96565b600060405180830381600087803b15801561186257600080fd5b505af1158015611876573d6000803e3d6000fd5b50505050565b611884611bfa565b73ffffffffffffffffffffffffffffffffffffffff166118a2610d2b565b73ffffffffffffffffffffffffffffffffffffffff16146118f8576040517f08c379a00000000000000000000000000000000000000000000000000000000081526004016118ef90612ab3565b60405180910390fd5b600047905061193c6040518060400160405280601e81526020017f746f74616c206672656520696e766573746d656e7420616d6f756e743a2000008152508261204e565b6000811115611bf75760005b600954811015611bf55760006119e7600860008481526020019081526020016000206040518060600160405290816000820160009054906101000a900473ffffffffffffffffffffffffffffffffffffffff1673ffffffffffffffffffffffffffffffffffffffff1673ffffffffffffffffffffffffffffffffffffffff16815260200160018201548152602001600282015481525050600a546120ea565b90506008600083815260200190815260200160002060020154811115611be1576000611a9a600860008581526020019081526020016000206040518060600160405290816000820160009054906101000a900473ffffffffffffffffffffffffffffffffffffffff1673ffffffffffffffffffffffffffffffffffffffff1673ffffffffffffffffffffffffffffffffffffffff16815260200160018201548152602001600282015481525050856120ea565b9050611b486040518060400160405280600a81526020017f696e76657374696e672000000000000000000000000000000000000000000000815250826040518060400160405280600681526020017f20696e746f2000000000000000000000000000000000000000000000000000008152506008600088815260200190815260200160002060000160009054906101000a900473ffffffffffffffffffffffffffffffffffffffff166121ec565b6008600084815260200190815260200160002060000160009054906101000a900473ffffffffffffffffffffffffffffffffffffffff1673ffffffffffffffffffffffffffffffffffffffff1663d0e30db0826040518263ffffffff1660e01b81526004016000604051808303818588803b158015611bc657600080fd5b505af1158015611bda573d6000803e3d6000fd5b5050505050505b508080611bed90612b02565b915050611948565b505b50565b600033905090565b600073ffffffffffffffffffffffffffffffffffffffff168373ffffffffffffffffffffffffffffffffffffffff161415611c72576040517f08c379a0000000000000000000000000000000000000000000000000000000008152600401611c6990612dc3565b60405180910390fd5b600073ffffffffffffffffffffffffffffffffffffffff168273ffffffffffffffffffffffffffffffffffffffff161415611ce2576040517f08c379a0000000000000000000000000000000000000000000000000000000008152600401611cd990612e55565b60405180910390fd5b80600160008573ffffffffffffffffffffffffffffffffffffffff1673ffffffffffffffffffffffffffffffffffffffff16815260200190815260200160002060008473ffffffffffffffffffffffffffffffffffffffff1673ffffffffffffffffffffffffffffffffffffffff168152602001908152602001600020819055508173ffffffffffffffffffffffffffffffffffffffff168373ffffffffffffffffffffffffffffffffffffffff167f8c5be1e5ebec7d5bd14f71427d1e84f3dd0314c0f7b2291e5b200ac8c7c3b92583604051611dc091906124e0565b60405180910390a3505050565b600073ffffffffffffffffffffffffffffffffffffffff168373ffffffffffffffffffffffffffffffffffffffff161415611e3d576040517f08c379a0000000000000000000000000000000000000000000000000000000008152600401611e3490612ee7565b60405180910390fd5b600073ffffffffffffffffffffffffffffffffffffffff168273ffffffffffffffffffffffffffffffffffffffff161415611ead576040517f08c379a0000000000000000000000000000000000000000000000000000000008152600401611ea490612f79565b60405180910390fd5b611eb883838361228e565b60008060008573ffffffffffffffffffffffffffffffffffffffff1673ffffffffffffffffffffffffffffffffffffffff16815260200190815260200160002054905081811015611f3e576040517f08c379a0000000000000000000000000000000000000000000000000000000008152600401611f359061300b565b60405180910390fd5b8181036000808673ffffffffffffffffffffffffffffffffffffffff1673ffffffffffffffffffffffffffffffffffffffff16815260200190815260200160002081905550816000808573ffffffffffffffffffffffffffffffffffffffff1673ffffffffffffffffffffffffffffffffffffffff1681526020019081526020016000206000828254611fd19190612b4b565b925050819055508273ffffffffffffffffffffffffffffffffffffffff168473ffffffffffffffffffffffffffffffffffffffff167fddf252ad1be2c89b69c2b068fc378daa952ba7f163c4a11628f55a4df523b3ef8460405161203591906124e0565b60405180910390a3612048848484612293565b50505050565b6120e6828260405160240161206492919061302b565b6040516020818303038152906040527f9710a9d0000000000000000000000000000000000000000000000000000000007bffffffffffffffffffffffffffffffffffffffffffffffffffffffff19166020820180517bffffffffffffffffffffffffffffffffffffffffffffffffffffffff8381831617835250505050612298565b5050565b600080836020015114156121015760009050612120565b6064836020015183612113919061305b565b61211d91906130e4565b90505b92915050565b6000600560009054906101000a900473ffffffffffffffffffffffffffffffffffffffff16905081600560006101000a81548173ffffffffffffffffffffffffffffffffffffffff021916908373ffffffffffffffffffffffffffffffffffffffff1602179055508173ffffffffffffffffffffffffffffffffffffffff168173ffffffffffffffffffffffffffffffffffffffff167f8be0079c531659141344cd1fd0a4f28419497f9722a3daafe3b4186f6b6457e060405160405180910390a35050565b612288848484846040516024016122069493929190613115565b6040516020818303038152906040527fbb7235e9000000000000000000000000000000000000000000000000000000007bffffffffffffffffffffffffffffffffffffffffffffffffffffffff19166020820180517bffffffffffffffffffffffffffffffffffffffffffffffffffffffff8381831617835250505050612298565b50505050565b505050565b505050565b60008151905060006a636f6e736f6c652e6c6f679050602083016000808483855afa5050505050565b6040518060600160405280600073ffffffffffffffffffffffffffffffffffffffff16815260200160008152602001600081525090565b600081519050919050565b600082825260208201905092915050565b60005b83811015612332578082015181840152602081019050612317565b83811115612341576000848401525b50505050565b6000601f19601f8301169050919050565b6000612363826122f8565b61236d8185612303565b935061237d818560208601612314565b61238681612347565b840191505092915050565b600060208201905081810360008301526123ab8184612358565b905092915050565b6000604051905090565b600080fd5b600080fd5b600073ffffffffffffffffffffffffffffffffffffffff82169050919050565b60006123f2826123c7565b9050919050565b612402816123e7565b811461240d57600080fd5b50565b60008135905061241f816123f9565b92915050565b6000819050919050565b61243881612425565b811461244357600080fd5b50565b6000813590506124558161242f565b92915050565b60008060408385031215612472576124716123bd565b5b600061248085828601612410565b925050602061249185828601612446565b9150509250929050565b60008115159050919050565b6124b08161249b565b82525050565b60006020820190506124cb60008301846124a7565b92915050565b6124da81612425565b82525050565b60006020820190506124f560008301846124d1565b92915050565b600080600060608486031215612514576125136123bd565b5b600061252286828701612410565b935050602061253386828701612410565b925050604061254486828701612446565b9150509250925092565b600060208284031215612564576125636123bd565b5b600061257284828501612410565b91505092915050565b600060ff82169050919050565b6125918161257b565b82525050565b60006020820190506125ac6000830184612588565b92915050565b600080fd5b7f4e487b7100000000000000000000000000000000000000000000000000000000600052604160045260246000fd5b6125ef82612347565b810181811067ffffffffffffffff8211171561260e5761260d6125b7565b5b80604052505050565b60006126216123b3565b905061262d82826125e6565b919050565b600067ffffffffffffffff82111561264d5761264c6125b7565b5b602082029050602081019050919050565b600080fd5b600080fd5b60006060828403121561267e5761267d612663565b5b6126886060612617565b9050600061269884828501612410565b60008301525060206126ac84828501612446565b60208301525060406126c084828501612446565b60408301525092915050565b60006126df6126da84612632565b612617565b905080838252602082019050606084028301858111156127025761270161265e565b5b835b8181101561272b57806127178882612668565b845260208401935050606081019050612704565b5050509392505050565b600082601f83011261274a576127496125b2565b5b813561275a8482602086016126cc565b91505092915050565b600060208284031215612779576127786123bd565b5b600082013567ffffffffffffffff811115612797576127966123c2565b5b6127a384828501612735565b91505092915050565b6127b5816123e7565b82525050565b60006020820190506127d060008301846127ac565b92915050565b600081519050919050565b600082825260208201905092915050565b6000819050602082019050919050565b61280b816123e7565b82525050565b61281a81612425565b82525050565b6060820160008201516128366000850182612802565b5060208201516128496020850182612811565b50604082015161285c6040850182612811565b50505050565b600061286e8383612820565b60608301905092915050565b6000602082019050919050565b6000612892826127d6565b61289c81856127e1565b93506128a7836127f2565b8060005b838110156128d85781516128bf8882612862565b97506128ca8361287a565b9250506001810190506128ab565b5085935050505092915050565b600060208201905081810360008301526128ff8184612887565b905092915050565b6000806040838503121561291e5761291d6123bd565b5b600061292c85828601612410565b925050602061293d85828601612410565b9150509250929050565b60006020828403121561295d5761295c6123bd565b5b600061296b84828501612446565b91505092915050565b7f4e487b7100000000000000000000000000000000000000000000000000000000600052602260045260246000fd5b600060028204905060018216806129bb57607f821691505b602082108114156129cf576129ce612974565b5b50919050565b7f45524332303a207472616e7366657220616d6f756e742065786365656473206160008201527f6c6c6f77616e6365000000000000000000000000000000000000000000000000602082015250565b6000612a31602883612303565b9150612a3c826129d5565b604082019050919050565b60006020820190508181036000830152612a6081612a24565b9050919050565b7f4f776e61626c653a2063616c6c6572206973206e6f7420746865206f776e6572600082015250565b6000612a9d602083612303565b9150612aa882612a67565b602082019050919050565b60006020820190508181036000830152612acc81612a90565b9050919050565b7f4e487b7100000000000000000000000000000000000000000000000000000000600052601160045260246000fd5b6000612b0d82612425565b91507fffffffffffffffffffffffffffffffffffffffffffffffffffffffffffffffff821415612b4057612b3f612ad3565b5b600182019050919050565b6000612b5682612425565b9150612b6183612425565b9250827fffffffffffffffffffffffffffffffffffffffffffffffffffffffffffffffff03821115612b9657612b95612ad3565b5b828201905092915050565b7f4e487b7100000000000000000000000000000000000000000000000000000000600052603260045260246000fd5b6000612bdb82612425565b9150612be683612425565b925082821015612bf957612bf8612ad3565b5b828203905092915050565b7f45524332303a2064656372656173656420616c6c6f77616e63652062656c6f7760008201527f207a65726f000000000000000000000000000000000000000000000000000000602082015250565b6000612c60602583612303565b9150612c6b82612c04565b604082019050919050565b60006020820190508181036000830152612c8f81612c53565b9050919050565b6000604082019050612cab60008301856127ac565b612cb860208301846124d1565b9392505050565b7f4f776e61626c653a206e6577206f776e657220697320746865207a65726f206160008201527f6464726573730000000000000000000000000000000000000000000000000000602082015250565b6000612d1b602683612303565b9150612d2682612cbf565b604082019050919050565b60006020820190508181036000830152612d4a81612d0e565b9050919050565b7f45524332303a20617070726f76652066726f6d20746865207a65726f2061646460008201527f7265737300000000000000000000000000000000000000000000000000000000602082015250565b6000612dad602483612303565b9150612db882612d51565b604082019050919050565b60006020820190508181036000830152612ddc81612da0565b9050919050565b7f45524332303a20617070726f766520746f20746865207a65726f20616464726560008201527f7373000000000000000000000000000000000000000000000000000000000000602082015250565b6000612e3f602283612303565b9150612e4a82612de3565b604082019050919050565b60006020820190508181036000830152612e6e81612e32565b9050919050565b7f45524332303a207472616e736665722066726f6d20746865207a65726f20616460008201527f6472657373000000000000000000000000000000000000000000000000000000602082015250565b6000612ed1602583612303565b9150612edc82612e75565b604082019050919050565b60006020820190508181036000830152612f0081612ec4565b9050919050565b7f45524332303a207472616e7366657220746f20746865207a65726f206164647260008201527f6573730000000000000000000000000000000000000000000000000000000000602082015250565b6000612f63602383612303565b9150612f6e82612f07565b604082019050919050565b60006020820190508181036000830152612f9281612f56565b9050919050565b7f45524332303a207472616e7366657220616d6f756e742065786365656473206260008201527f616c616e63650000000000000000000000000000000000000000000000000000602082015250565b6000612ff5602683612303565b915061300082612f99565b604082019050919050565b6000602082019050818103600083015261302481612fe8565b9050919050565b600060408201905081810360008301526130458185612358565b905061305460208301846124d1565b9392505050565b600061306682612425565b915061307183612425565b9250817fffffffffffffffffffffffffffffffffffffffffffffffffffffffffffffffff04831182151516156130aa576130a9612ad3565b5b828202905092915050565b7f4e487b7100000000000000000000000000000000000000000000000000000000600052601260045260246000fd5b60006130ef82612425565b91506130fa83612425565b92508261310a576131096130b5565b5b828204905092915050565b6000608082019050818103600083015261312f8187612358565b905061313e60208301866124d1565b81810360408301526131508185612358565b905061315f60608301846127ac565b9594505050505056fe6164617074657220666f756e642c206e65772070657263656e7461676520697320a26469706673582212208088966196d601179e05663e096a59c6a41108bccaf67e68fb5600768f53584164736f6c63430008090033",
  "linkReferences": {},
  "deployedLinkReferences": {}
}