{
  "_format": "hh-sol-artifact-1",
  "contractName": "AavePlayground",
  "sourceName": "contracts/AavePlayground.sol",
  "abi": [
    {
      "inputs": [],
      "name": "aaveAddr",
      "outputs": [
        {
          "internalType": "address",
          "name": "",
          "type": "address"
        }
      ],
      "stateMutability": "view",
      "type": "function"
    },
    {
      "inputs": [],
      "name": "depositAaveToLendingPool",
      "outputs": [],
      "stateMutability": "payable",
      "type": "function"
    },
    {
      "inputs": [],
      "name": "lendingPoolAddr",
      "outputs": [
        {
          "internalType": "address",
          "name": "",
          "type": "address"
        }
      ],
      "stateMutability": "view",
      "type": "function"
    },
    {
      "inputs": [],
      "name": "wethGateway",
      "outputs": [
        {
          "internalType": "address",
          "name": "",
          "type": "address"
        }
      ],
      "stateMutability": "view",
      "type": "function"
    }
  ],
  "bytecode": "0x608060405273e0fba4fc209b4948668006b2be61711b7f465bae6000806101000a81548173ffffffffffffffffffffffffffffffffffffffff021916908373ffffffffffffffffffffffffffffffffffffffff16021790555073b597cd8d3217ea6477232f9217fa70837ff667af600160006101000a81548173ffffffffffffffffffffffffffffffffffffffff021916908373ffffffffffffffffffffffffffffffffffffffff16021790555073a61ca04df33b72b235a8a28cfb535bb7a5271b70600260006101000a81548173ffffffffffffffffffffffffffffffffffffffff021916908373ffffffffffffffffffffffffffffffffffffffff16021790555034801561010e57600080fd5b506104b18061011e6000396000f3fe60806040526004361061003f5760003560e01c80633d4535e314610044578063449e1d281461006f57806381bb8d6314610079578063c5e10eef146100a4575b600080fd5b34801561005057600080fd5b506100596100cf565b60405161006691906103a2565b60405180910390f35b6100776100f3565b005b34801561008557600080fd5b5061008e6101ba565b60405161009b91906103a2565b60405180910390f35b3480156100b057600080fd5b506100b96101e0565b6040516100c691906103a2565b60405180910390f35b60008054906101000a900473ffffffffffffffffffffffffffffffffffffffff1681565b6100fc34610206565b6101053361029f565b600260009054906101000a900473ffffffffffffffffffffffffffffffffffffffff1673ffffffffffffffffffffffffffffffffffffffff1663474cf53d3460008054906101000a900473ffffffffffffffffffffffffffffffffffffffff163360006040518563ffffffff1660e01b815260040161018693929190610410565b6000604051808303818588803b15801561019f57600080fd5b505af11580156101b3573d6000803e3d6000fd5b5050505050565b600160009054906101000a900473ffffffffffffffffffffffffffffffffffffffff1681565b600260009054906101000a900473ffffffffffffffffffffffffffffffffffffffff1681565b61029c8160405160240161021a9190610460565b6040516020818303038152906040527ff5b1bba9000000000000000000000000000000000000000000000000000000007bffffffffffffffffffffffffffffffffffffffffffffffffffffffff19166020820180517bffffffffffffffffffffffffffffffffffffffffffffffffffffffff8381831617835250505050610338565b50565b610335816040516024016102b391906103a2565b6040516020818303038152906040527f2c2ecbc2000000000000000000000000000000000000000000000000000000007bffffffffffffffffffffffffffffffffffffffffffffffffffffffff19166020820180517bffffffffffffffffffffffffffffffffffffffffffffffffffffffff8381831617835250505050610338565b50565b60008151905060006a636f6e736f6c652e6c6f679050602083016000808483855afa5050505050565b600073ffffffffffffffffffffffffffffffffffffffff82169050919050565b600061038c82610361565b9050919050565b61039c81610381565b82525050565b60006020820190506103b76000830184610393565b92915050565b6000819050919050565b600061ffff82169050919050565b6000819050919050565b60006103fa6103f56103f0846103bd565b6103d5565b6103c7565b9050919050565b61040a816103df565b82525050565b60006060820190506104256000830186610393565b6104326020830185610393565b61043f6040830184610401565b949350505050565b6000819050919050565b61045a81610447565b82525050565b60006020820190506104756000830184610451565b9291505056fea2646970667358221220404aaa46e99f8381f040ec90f47c07e016f8a7aff7ad17a152b541139bc746e364736f6c63430008090033",
  "linkReferences": {},
  "deployedLinkReferences": {}
}